{
  "_format": "hh-sol-artifact-1",
  "contractName": "SingleCollective",
  "sourceName": "contracts/collective/SingleCollective.sol",
  "abi": [
    {
      "anonymous": false,
      "inputs": [
        {
          "indexed": false,
          "internalType": "address",
          "name": "root",
          "type": "address"
        },
        {
          "indexed": false,
          "internalType": "address",
          "name": "creator",
          "type": "address"
        },
        {
          "indexed": false,
          "internalType": "string",
          "name": "name",
          "type": "string"
        },
        {
          "indexed": false,
          "internalType": "string",
          "name": "category",
          "type": "string"
        },
        {
          "indexed": false,
          "internalType": "string[]",
          "name": "tags",
          "type": "string[]"
        },
        {
          "indexed": false,
          "internalType": "string",
          "name": "description",
          "type": "string"
        },
        {
          "indexed": false,
          "internalType": "string",
          "name": "uri",
          "type": "string"
        },
        {
          "indexed": false,
          "internalType": "address[]",
          "name": "payees",
          "type": "address[]"
        },
        {
          "indexed": false,
          "internalType": "uint256[]",
          "name": "royalties",
          "type": "uint256[]"
        },
        {
          "indexed": false,
          "internalType": "uint64",
          "name": "maximum",
          "type": "uint64"
        }
      ],
      "name": "CollectionCreated",
      "type": "event"
    },
    {
      "anonymous": false,
      "inputs": [
        {
          "indexed": false,
          "internalType": "uint8",
          "name": "version",
          "type": "uint8"
        }
      ],
      "name": "Initialized",
      "type": "event"
    },
    {
      "anonymous": false,
      "inputs": [
        {
          "indexed": true,
          "internalType": "address",
          "name": "previousOwner",
          "type": "address"
        },
        {
          "indexed": true,
          "internalType": "address",
          "name": "newOwner",
          "type": "address"
        }
      ],
      "name": "OwnershipTransferStarted",
      "type": "event"
    },
    {
      "anonymous": false,
      "inputs": [
        {
          "indexed": true,
          "internalType": "address",
          "name": "previousOwner",
          "type": "address"
        },
        {
          "indexed": true,
          "internalType": "address",
          "name": "newOwner",
          "type": "address"
        }
      ],
      "name": "OwnershipTransferred",
      "type": "event"
    },
    {
      "inputs": [],
      "name": "acceptOwnership",
      "outputs": [],
      "stateMutability": "nonpayable",
      "type": "function"
    },
    {
      "inputs": [
        {
          "internalType": "string",
          "name": "name",
          "type": "string"
        },
        {
          "internalType": "string",
          "name": "category",
          "type": "string"
        },
        {
          "internalType": "string[]",
          "name": "tags",
          "type": "string[]"
        },
        {
          "internalType": "string",
          "name": "description",
          "type": "string"
        },
        {
          "internalType": "string",
          "name": "uri",
          "type": "string"
        },
        {
          "internalType": "address[]",
          "name": "payees",
          "type": "address[]"
        },
        {
          "internalType": "uint256[]",
          "name": "royalties",
          "type": "uint256[]"
        },
        {
          "internalType": "uint64",
          "name": "maximum",
          "type": "uint64"
        }
      ],
      "name": "createCollection",
      "outputs": [],
      "stateMutability": "nonpayable",
      "type": "function"
    },
    {
      "inputs": [
        {
          "internalType": "string",
          "name": "name",
          "type": "string"
        },
        {
          "internalType": "string",
          "name": "symbol",
          "type": "string"
        }
      ],
      "name": "createRoot",
      "outputs": [
        {
          "internalType": "contract IToken",
          "name": "",
          "type": "address"
        }
      ],
      "stateMutability": "nonpayable",
      "type": "function"
    },
    {
      "inputs": [],
      "name": "initialize",
      "outputs": [],
      "stateMutability": "nonpayable",
      "type": "function"
    },
    {
      "inputs": [
        {
          "internalType": "string",
          "name": "_collection",
          "type": "string"
        },
        {
          "internalType": "uint256",
          "name": "balance",
          "type": "uint256"
        },
        {
          "internalType": "string",
          "name": "uri",
          "type": "string"
        }
      ],
      "name": "mint",
      "outputs": [],
      "stateMutability": "nonpayable",
      "type": "function"
    },
    {
      "inputs": [
        {
          "internalType": "string",
          "name": "_collection",
          "type": "string"
        },
        {
          "internalType": "uint256",
          "name": "balance",
          "type": "uint256"
        },
        {
          "internalType": "string",
          "name": "uri",
          "type": "string"
        },
        {
          "internalType": "address",
          "name": "to",
          "type": "address"
        }
      ],
      "name": "mintTo",
      "outputs": [],
      "stateMutability": "nonpayable",
      "type": "function"
    },
    {
      "inputs": [],
      "name": "owner",
      "outputs": [
        {
          "internalType": "address",
          "name": "",
          "type": "address"
        }
      ],
      "stateMutability": "view",
      "type": "function"
    },
    {
      "inputs": [],
      "name": "pendingOwner",
      "outputs": [
        {
          "internalType": "address",
          "name": "",
          "type": "address"
        }
      ],
      "stateMutability": "view",
      "type": "function"
    },
    {
      "inputs": [],
      "name": "renounceOwnership",
      "outputs": [],
      "stateMutability": "nonpayable",
      "type": "function"
    },
    {
      "inputs": [
        {
          "internalType": "address",
          "name": "_marketplace",
          "type": "address"
        }
      ],
      "name": "setMarketplace",
      "outputs": [],
      "stateMutability": "nonpayable",
      "type": "function"
    },
    {
      "inputs": [
        {
          "internalType": "address",
          "name": "newOwner",
          "type": "address"
        }
      ],
      "name": "transferOwnership",
      "outputs": [],
      "stateMutability": "nonpayable",
      "type": "function"
    }
  ],
  "bytecode": "0x60808060405234610016576141ec908161001c8239f35b600080fdfe60a0604052600436101561001257600080fd5b60003560e01c806306bdc949146113175780633a35fe1b146104a0578063715018a61461044b57806373ad6c2d1461040857806379ba5097146103835780638129fc1c1461022e5780638da5cb5b14610205578063adabc65014610198578063c682a10d14610130578063e30c3978146101075763f2fde38b1461009557600080fd5b34610102576020366003190112610102576100ae611479565b6100b66114d1565b606580546001600160a01b0319166001600160a01b039283169081179091556033549091167f38d16b8cac22d99fc7c124b9cd0de2d3fa1faef420bfe791d8c362d765e22700600080a3005b600080fd5b34610102576000366003190112610102576065546040516001600160a01b039091168152602090f35b34610102576040366003190112610102576001600160401b036004358181116101025761016190369060040161140c565b906024359081116101025760209161018061018692369060040161140c565b9061232c565b6040516001600160a01b039091168152f35b34610102576080366003190112610102576001600160401b03600435818111610102576101c990369060040161140c565b90604435908111610102576101e290369060040161140c565b606435906001600160a01b0382168203610102576102039260243590611647565b005b34610102576000366003190112610102576033546040516001600160a01b039091168152602090f35b346101025760003660031901126101025760005460ff8160081c161590818092610376575b801561035f575b156103035760ff198116600117600055816102f1575b5061028b60ff60005460081c1661028681611529565b611529565b6102943361148f565b6099805460ff60a01b1916600560a01b17905567016345785d8a0000609a556102b957005b61ff0019600054166000557f7f26b83ff96e1f2b6a682f133852f6798a09c465da95921460cefb3847402498602060405160018152a1005b61ffff19166101011760005581610270565b60405162461bcd60e51b815260206004820152602e60248201527f496e697469616c697a61626c653a20636f6e747261637420697320616c72656160448201526d191e481a5b9a5d1a585b1a5e995960921b6064820152608490fd5b50303b15801561025a5750600160ff82161461025a565b50600160ff821610610253565b3461010257600036600319011261010257606554336001600160a01b03909116036103b1576102033361148f565b60405162461bcd60e51b815260206004820152602960248201527f4f776e61626c6532537465703a2063616c6c6572206973206e6f7420746865206044820152683732bb9037bbb732b960b91b6064820152608490fd5b3461010257602036600319011261010257610421611479565b6104296114d1565b609980546001600160a01b0319166001600160a01b0392909216919091179055005b34610102576000366003190112610102576104646114d1565b606580546001600160a01b03199081169091556033805491821690556000906001600160a01b03166000805160206141978339815191528280a3005b3461010257610100366003190112610102576004356001600160401b038111610102576104d190369060040161140c565b6024356001600160401b038111610102576104f090369060040161140c565b906001600160401b03604435116101025736602360443501121561010257604435600401359061051f82611462565b9161052d60405193846113e9565b8083526020830180913660248260051b60443501011161010257602460443501915b60248260051b604435010183106112e257505060643590506001600160401b0381116101025761058390369060040161140c565b916084356001600160401b038111610102576105a390369060040161140c565b926001600160401b0360a435116101025736602360a4350112156101025760a435600401356105d181611462565b6105de60405191826113e9565b8181526020810180923660248260051b60a43501011161010257602460a43501915b60248260051b60a435010183106112c05750506001600160401b0360c4351190506101025736602360c4350112156101025761064160c43560040135611462565b9561064f60405197886113e9565b60c43560040135875260208701958636602460c4356004013560051b60c43501011161010257602460c43501905b602460c4356004013560051b60c435010182106112b057505060e435946001600160401b038616860361010257600060805286511561127357336000526097602052604060002060405188516106d7818360208d01611589565b8101918252908190036020019020546001600160a01b03166112355783518951036111fe57835160ff60995460a01c16106111bd576000998a5b855160ff8d16101561077a578a5160ff8d161015610764576020611fe08d60051b168c010151810180911161074e57600160ff919c01169a610711565b634e487b7160e01b600052601160045260246000fd5b634e487b7160e01b600052603260045260246000fd5b8c909a969798999a609a5410611178576001600160a01b0361079c8b8061232c565b60995491169a906001600160a01b03168b3b156101025760008c6024829360405194859384926373ad6c2d60e01b845260048401525af1801561116c57611158575b50336080515260976020526040608051206020604051809284516108058184868901611589565b82019081520301902080546001600160a01b0319168c17905560405161082a81611397565b3381528160208201528260408201528360608201528460808201528660a08201528760c08201528860e082015260018060401b038b166101008201528b608051526098602052608051604081209060018060a01b0383511660018060a01b0319835416178255602083015180519160018060401b038311610caa575081906108b560018501546115ac565b601f8111611121575b5060805190602091601f84116001146110af5750608051926110a4575b50508160011b916000199060031b1c19161760018201555b60408201518051906001600160401b038211610c9257819061091860028501546115ac565b601f811161106d575b5060805190602091601f8411600114610ffb575060805192610ff0575b50508160011b916000199060031b1c19161760028201555b6060820151805190600160401b8211610c92576003830154826003850155808310610f6e575b50608080516003850190525160208082209392015b828210610e51575050505060808201518051906001600160401b038211610c925781906109c160048501546115ac565b601f8111610e1a575b5060805190602091601f8411600114610da8575060805192610d9d575b50508160011b916000199060031b1c19161760048201555b60a08201518051906001600160401b038211610c92578190610a2460058501546115ac565b601f8111610d5b575b5060805190602091601f8411600114610ce9575060805192610cde575b50508160011b916000199060031b1c19161760058201555b60c082015180516001600160401b038111610c9257600160401b8111610c925760206006840192610a98838554818755866115fd565b0191608051526080519160208320835b838110610cc1575050505060e08301518051916001600160401b038311610caa5750600160401b8211610c925760206007840191610aeb848454818655856115fd565b01906080515260805160208120905b838110610c7e5750505061010090920151600890910180546001600160401b0319166001600160401b039290921691909117905550604080519b8c523360208d0152610140908c01819052610b649291610b56918d0190611622565b908b820360608d0152611622565b9089820360808b015251808252602082019160208260051b8201019492608051915b838310610c5157505050505091610baa826020948a610bb8950360a08c0152611622565b9088820360c08a0152611622565b9186830360e088015251918281520192906080515b818110610c325750505060209084830361010086015251918281520193906080515b818110610c1c576001600160401b03841661012086015260008051602061417783398151915285870386a1005b8251865260209586019590920191600101610bef565b82516001600160a01b0316855260209485019490920191600101610bcd565b9091929395602080610c6f600193601f198682030187528a51611622565b98019301930191939290610b86565b600190602084519401938184015501610afa565b634e487b7160e01b6080515260416004526024608051fd5b634e487b7160e01b90526041600452608051602490fd5b82516001600160a01b031681830155602090920191600101610aa8565b015190503880610a4a565b6005860190526080516020812090945091905b601f1984168510610d40576001945083601f19811610610d27575b505050811b016005820155610a62565b015160001960f88460031b161c19169055388080610d17565b81810151835560209485019460019093019290910190610cfc565b610d8d906005860160805152602060805120601f850160051c81019160208610610d93575b601f0160051c01906115e6565b38610a2d565b9091508190610d80565b0151905038806109e7565b6004860190526080516020812090945091905b601f1984168510610dff576001945083601f19811610610de6575b505050811b0160048201556109ff565b015160001960f88460031b161c19169055388080610dd6565b81810151835560209485019460019093019290910190610dbb565b610e4b906004860160805152602060805120601f850160051c81019160208610610d9357601f0160051c01906115e6565b386109ca565b80518051906001600160401b038211610c9257610e6e86546115ac565b601f8111610f3a575b506080519086602092601f8511600114610ecc575050928260019493602093869560805192610ec1575b5050600019600383901b1c191690841b1787555b01940191019092610991565b015190503880610ea1565b52608051602081209291905b601f1985168110610f22575083602093600196938796938794601f19811610610f09575b505050811b018755610eb5565b015160001960f88460031b161c19169055388080610efc565b91926020600181928685015181550194019201610ed8565b610f68908760805152602060805120601f850160051c81019160208610610d9357601f0160051c01906115e6565b38610e77565b6003840160805152602060805120908382015b8183018110610f9157505061097c565b80610f9e600192546115ac565b80610fab575b5001610f81565b601f81118314610fc15750600081555b38610fa4565b8160805152610fe26080519184601f60208520920160051c820191016115e6565b602081206000835555610fbb565b01519050388061093e565b6002860190526080516020812090945091905b601f1984168510611052576001945083601f19811610611039575b505050811b016002820155610956565b015160001960f88460031b161c19169055388080611029565b8181015183556020948501946001909301929091019061100e565b61109e906002860160805152602060805120601f850160051c81019160208610610d9357601f0160051c01906115e6565b38610921565b0151905038806108db565b6001860190526080516020812090945091905b601f1984168510611106576001945083601f198116106110ed575b505050811b0160018201556108f3565b015160001960f88460031b161c191690553880806110dd565b818101518355602094850194600190930192909101906110c2565b611152906001860160805152602060805120601f850160051c81019160208610610d9357601f0160051c01906115e6565b386108be565b6111619061136e565b60006080528c6107de565b6040513d6000823e3d90fd5b60405162461bcd60e51b815260206004820152601d60248201527f4578636565646564204d41585f43524541544f525f4541524e494e47530000006044820152606490fd5b60405162461bcd60e51b8152602060048201526019602482015278115e18d9595919590813505617d41056515154d7d0d3d55395603a1b6044820152606490fd5b60405162461bcd60e51b815260206004820152600f60248201526e4c61636b206f6620726f79616c747960881b6044820152606490fd5b60405162461bcd60e51b815260206004820152601660248201527510dbdb1b1958dd1a5bdb881dd85cc8195e1a5cdd195960521b6044820152606490fd5b60405162461bcd60e51b8152602060048201526015602482015274456d70747920636f6c6c656374696f6e206e616d6560581b6044820152606490fd5b813581526020918201910161067d565b8235906001600160a01b03821682036101025790815260209283019201610600565b8235906001600160401b038211610102576020809161130a602494853691604435010161140c565b815201930192905061054f565b34610102576060366003190112610102576001600160401b036004358181116101025761134890369060040161140c565b6044359182116101025761136361020392369060040161140c565b339160243590611647565b6001600160401b03811161138157604052565b634e487b7160e01b600052604160045260246000fd5b61012081019081106001600160401b0382111761138157604052565b604081019081106001600160401b0382111761138157604052565b602081019081106001600160401b0382111761138157604052565b601f909101601f19168101906001600160401b0382119082101761138157604052565b81601f82011215610102578035906001600160401b0382116113815760405192611440601f8401601f1916602001856113e9565b8284526020838301011161010257816000926020809301838601378301015290565b6001600160401b0381116113815760051b60200190565b600435906001600160a01b038216820361010257565b606580546001600160a01b0319908116909155603380549182166001600160a01b039384169081179091559116600080516020614197833981519152600080a3565b6033546001600160a01b031633036114e557565b606460405162461bcd60e51b815260206004820152602060248201527f4f776e61626c653a2063616c6c6572206973206e6f7420746865206f776e65726044820152fd5b1561153057565b60405162461bcd60e51b815260206004820152602b60248201527f496e697469616c697a61626c653a20636f6e7472616374206973206e6f74206960448201526a6e697469616c697a696e6760a81b6064820152608490fd5b60005b83811061159c5750506000910152565b818101518382015260200161158c565b90600182811c921680156115dc575b60208310146115c657565b634e487b7160e01b600052602260045260246000fd5b91607f16916115bb565b8181106115f1575050565b600081556001016115e6565b9181811061160a57505050565b61162092600052602060002091820191016115e6565b565b9060209161163b81518092818552858086019101611589565b601f01601f1916010190565b90929192815115611803575b600091338352602090609782526040948585208361167988519485815193849201611589565b8301908152828460018060a01b039485930301902054169283156117c1578386526098815286862060080154875163023fe4d560e11b8152906001600160401b03168282600481895afa9182156117b7578892611784575b5011156117435750823b1561173f579084809493926117188851998a9687958694633349e71f60e21b86521660048501526024840152606060448401526064830190611622565b03925af191821561173557505061172c5750565b6116209061136e565b51903d90823e3d90fd5b8480fd5b60649087519062461bcd60e51b82526004820152601b60248201527a737570706c7920776f756c6420657863656564206d6178696d756d60281b6044820152fd5b9091508281813d83116117b0575b61179c81836113e9565b810103126117ac575190386116d1565b8780fd5b503d611792565b89513d8a823e3d90fd5b60649087519062461bcd60e51b825280600483015260248201527f5468617420636f6c6c656374696f6e207761736e2774207075626c69736865646044820152fd5b6040519150611811826113b3565b60138252723ab73a34ba3632b21031b7b63632b1ba34b7b760691b60208301528133600052609760205260406000206040518251611853818360208701611589565b8101918252908190036020019020546001600160a01b031615611877575b50611653565b919490929360405194611889866113ce565b600086526040519661189a886113ce565b60008852604051956118ab876113ce565b60008752604051956118bc876113b3565b60088752671d5b9d1a5d1b195960c21b6020880152604051996118de8b6113ce565b60008b526040516118ee816113ce565b60008152600090835115611273573360005260976020526040600020604051855161191d818360208a01611589565b8101918252908190036020019020546001600160a01b03166112355782518b51036111fe57825160ff60995460a01c16106111bd5760009b8c5b845160ff8f1690811015611993578d5111156107645760208d8f611fe09060051b16010151810180911161074e57600160ff919e01169c611957565b509093969a9194989c509c9194989c9a969a609a5410611178576001600160a01b036119bf898061232c565b609954911698906001600160a01b0316893b15610102576040516373ad6c2d60e01b81526004810191909152600081602481838e5af1801561116c57612318575b50338652609760205260408620602060405180928451611a238184868901611589565b82019081520301902080546001600160a01b0319168a179055604051611a4881611397565b33815260208082018381526040808401869052606084018890526080840187905260a0840189905260c084018b905260e084018c90526001600160401b0361010085018190528d8b5260989093528920835181546001600160a01b0319166001600160a01b03919091161781559051805191928211611e87578190611ad060018501546115ac565b601f81116122e5575b50602090601f8311600114612276578b9261226b575b50508160011b916000199060031b1c19161760018201555b60408201518051906001600160401b038211611e87578190611b2c60028501546115ac565b601f8111612238575b50602090601f83116001146121c9578b926121be575b50508160011b916000199060031b1c19161760028201555b6060820151805190600160401b8211611e87576003830154826003850155808310612141575b50602001600383018a5260208a208a915b838310612012575050505060808201518051906001600160401b038211611e87578190611bca60048501546115ac565b601f8111611fdf575b50602090601f8311600114611f70578b92611f65575b50508160011b916000199060031b1c19161760048201555b60a08201518051906001600160401b038211611e87578190611c2660058501546115ac565b601f8111611f32575b50602090601f8311600114611ec3578b92611eb8575b50508160011b916000199060031b1c19161760058201555b60c08201518051906001600160401b038211611e8757600160401b8211611e875760206006840191611c94848454818655856115fd565b01908a5260208a208a5b838110611e9b575050505060e08201518051906001600160401b038211611e8757600160401b8211611e875760206007849c9b9c0191611ce3848454818655856115fd565b01908b5260208b208b5b838110611e73575050505091611d3f916008611d4d9594019061010060018060401b039101511660018060401b03198254161790556040519a8b523360208c01526101408060408d01528b0190611622565b9089820360608b0152611622565b8781036080890152825180825260208201916020808360051b83010195019288915b838310611e4057505050505081611d919188611d9f95940360a08a0152611622565b9086820360c0880152611622565b84810360e086015260208083519283815201920190835b818110611e2157505050838103610100850152602080845192838152019301915b818110611e0b5750506001600160401b0361012084015250600080516020614177833981519152919081900390a138611871565b8251845260209384019390920191600101611dd7565b82516001600160a01b0316845260209384019390920191600101611db6565b9091929395602080611e61600193601f9d9c9d198682030187528a51611622565b98019301930191939290989798611d6f565b825181830155602090920191600101611ced565b634e487b7160e01b8a52604160045260248afd5b82516001600160a01b031681830155602090920191600101611c9e565b015190503880611c45565b9250600584018b5260208b20908b935b601f1984168510611f17576001945083601f19811610611efe575b505050811b016005820155611c5d565b015160001960f88460031b161c19169055388080611eee565b81810151835560209485019460019093019290910190611ed3565b611f5f90600586018d5260208d20601f850160051c81019160208610610d9357601f0160051c01906115e6565b38611c2f565b015190503880611be9565b9250600484018b5260208b20908b935b601f1984168510611fc4576001945083601f19811610611fab575b505050811b016004820155611c01565b015160001960f88460031b161c19169055388080611f9b565b81810151835560209485019460019093019290910190611f80565b61200c90600486018d5260208d20601f850160051c81019160208610610d9357601f0160051c01906115e6565b38611bd3565b80518051906001600160401b03821161212d578d9061203185546115ac565b601f81116120f2575b50602091601f84116001146120855792806020936001969387969261207a575b5050600019600383901b1c191690841b1785555b01920192019190611b9a565b01519050388061205a565b919085835260208320925b601f19851681106120da575083602093600196938796938794601f198116106120c1575b505050811b01855561206e565b015160001960f88460031b161c191690553880806120b4565b91926020600181928685015181550194019201612090565b61211d90868452602084206005601f8701811c82019260208810612123575b601f01901c01906115e6565b3861203a565b9192508291612111565b634e487b7160e01b8e52604160045260248efd5b600384018b5260208b20908382015b8183018110612160575050611b89565b808d61216e600193546115ac565b8061217c575b505001612150565b601f81118414612194575050600081555b8d38612174565b83601f602084866121af965220920160051c820191016115e6565b8d60208120600083555561218d565b015190503880611b4b565b9250600284018b5260208b20908b935b601f198416851061221d576001945083601f19811610612204575b505050811b016002820155611b63565b015160001960f88460031b161c191690553880806121f4565b818101518355602094850194600190930192909101906121d9565b61226590600286018d5260208d20601f850160051c81019160208610610d9357601f0160051c01906115e6565b38611b35565b015190503880611aef565b9250600184018b5260208b20908b935b601f19841685106122ca576001945083601f198116106122b1575b505050811b016001820155611b07565b015160001960f88460031b161c191690553880806122a1565b81810151835560209485019460019093019290910190612286565b61231290600186018d5260208d20601f850160051c81019160208610610d9357601f0160051c01906115e6565b38611ad9565b61232391965061136e565b60009438611a00565b60408051919291611d7e808201916001600160401b039182841182851017611381576123f9823980600093039083f080156123ea576001600160a01b031694853b156123f45761239b83916123ad8651978893849363266c45bb60e11b85528960048601526044850190611622565b83810360031901602485015290611622565b038183895af180156123ea576123c5575b5050505090565b83116123d6575052388080806123be565b634e487b7160e01b81526041600452602490fd5b83513d84823e3d90fd5b8280fdfe6080806040523461001657611d62908161001c8239f35b600080fdfe60806040908082526004918236101561001757600080fd5b600092833560e01c92836301ffc9a71461129357508263047fc9aa1461103c57826306fdde03146111ed578263081812fc146111cd578263095ea7b31461105b57826318160ddd1461103c57826323b872dd146110175782632f745c5914610f6b5782633540302314610f4b57826342842e0e14610f175782634cd88b7614610b4c5782634f6ccce714610aba5782636352211e14610a8957826370a0823114610a5c578263715018a614610a0757826373ad6c2d146109c257826379ba50971461093d5782638da5cb5b1461091457826395d89b4114610833578263a22cb4651461077e578263b88d4fde146106f5578263c87b56dd146105f4578263cd279c7c1461023057508163e30c397814610207578163e985e9c5146101b5575063f2fde38b1461014557600080fd5b346101b25760203660031901126101b25761015e611358565b6101666114c4565b606580546001600160a01b0319166001600160a01b039283169081179091556033549091167f38d16b8cac22d99fc7c124b9cd0de2d3fa1faef420bfe791d8c362d765e227008380a380f35b80fd5b90503461020357806003193601126102035760ff816020936101d5611358565b6101dd611373565b6001600160a01b03918216835260ce875283832091168252855220549151911615158152f35b5080fd5b90503461020357816003193601126102035760655490516001600160a01b039091168152602090f35b8390346102035760603660031901126102035761024b611358565b926001600160401b03906044358281116105f05761026c9036908501611464565b906102756114c4565b60019161015f908382540180925582519461028f866113be565b8786526001600160a01b038981169690939087156105ad57899a6102bf6102b9849c9a9b9c611a2c565b15611c81565b60fd54838a52808860209b60fe8d522055600160401b81101561059a57918361038e92818f8e9060cb8f8f8f61031c876103018e6103939f860160fd55611bf0565b90919082549060031b600019811b9283911b16911916179055565b6103258861151c565b86865260fb84528186208187528452878287205587865260fc8452818620556103506102b988611a2c565b85855260cc8352842080549091019055848352528c812080546001600160a01b03191683179055600080516020611d0d8339815191528180a4611a49565b611713565b61039c81611a2c565b1561054057895261012d865283892091805191821161052d5781906103c184546115fd565b601f81116104dd575b508790601f831160011461047e578b92610473575b5050600019600383901b1c191690851b1790555b610160541694858514610436575083865260ce83528086208587528352808620805460ff19168317905551908152600080516020611ccd8339815191529190a380f35b83606492519162461bcd60e51b8352820152601960248201527822a9219b99189d1030b8383937bb32903a379031b0b63632b960391b6044820152fd5b015190508a806103df565b848c52888c208894509190601f1984168d5b8b8282106104c757505084116104ae575b505050811b0190556103f3565b015160001960f88460031b161c191690558a80806104a1565b8385015186558b97909501949384019301610490565b909150838b52878b20601f840160051c810191898510610523575b84939291601f8a920160051c01915b8281106105155750506103ca565b8d8155859450899101610507565b90915081906104f8565b634e487b7160e01b8a526041895260248afd5b845162461bcd60e51b8152808a01889052602e60248201527f45524337323155524953746f726167653a2055524920736574206f66206e6f6e60448201526d32bc34b9ba32b73a103a37b5b2b760911b6064820152608490fd5b634e487b7160e01b8d5260418c5260248dfd5b855162461bcd60e51b81526020818b0181905260248201527f4552433732313a206d696e7420746f20746865207a65726f20616464726573736044820152606490fd5b8480fd5b9150346106f157602091826003193601126106ed573561061b61061682611a2c565b611593565b835261012d8252808320928151809482908054610637816115fd565b918285526001918883821691826000146106c6575050600114610688575b5050506106849392916106699103866113ef565b8151610674816113be565b5251928284938452830190611318565b0390f35b8552868520879350859291905b8284106106ae5750505082010181610669610684610655565b8054848b018601528995508894909301928101610695565b60ff19168782015293151560051b8601909301935084925061066991506106849050610655565b8380fd5b8280fd5b83903461020357608036600319011261020357610710611358565b90610719611373565b6064359290604435906001600160401b03851161077a573660238601121561077a5761075461038e948660246107779836930135910161142d565b926107676107628433611737565b61165e565b6107728383836117ff565b611b65565b80f35b8580fd5b9150346106f157806003193601126106f157610798611358565b90602435918215158093036105f0576001600160a01b0316923384146107f5575033845260ce60205280842083855260205280842060ff1981541660ff841617905551908152600080516020611ccd83398151915260203392a380f35b6020606492519162461bcd60e51b8352820152601960248201527822a9219b99189d1030b8383937bb32903a379031b0b63632b960391b6044820152fd5b8382346102035781600319360112610203578051908260ca54610855816115fd565b808552906001908181169081156108ec5750600114610893575b505050610881826106849403836113ef565b51918291602083526020830190611318565b60ca8352602095507f42d72674974f694b5f5159593243114d38a5c39c89d6b62fee061ff523240ee15b8284106108d9575050508261068494610881928201019461086f565b80548685018801529286019281016108bd565b61068497506108819450602092508693915060ff191682840152151560051b8201019461086f565b83823461020357816003193601126102035760335490516001600160a01b039091168152602090f35b9150346106f157826003193601126106f157606554336001600160a01b039091160361096d578261077733611482565b906020608492519162461bcd60e51b8352820152602960248201527f4f776e61626c6532537465703a2063616c6c6572206973206e6f7420746865206044820152683732bb9037bbb732b960b91b6064820152fd5b83346101b25760203660031901126101b2576109dc611358565b6109e46114c4565b61016080546001600160a01b0319166001600160a01b0390921691909117905580f35b83346101b257806003193601126101b257610a206114c4565b606580546001600160a01b031990811690915560338054918216905581906001600160a01b0316600080516020611ced8339815191528280a380f35b83823461020357602036600319011261020357602090610a82610a7d611358565b61151c565b9051908152f35b9083346101b25760203660031901126101b25750610aa9602092356115da565b90516001600160a01b039091168152f35b83346101b25760203660031901126101b2575080359060fd54821015610af457602083610ae684611bf0565b91905490519160031b1c8152f35b608490602084519162461bcd60e51b8352820152602c60248201527f455243373231456e756d657261626c653a20676c6f62616c20696e646578206f60448201526b7574206f6620626f756e647360a01b6064820152fd5b909150346106f157816003193601126106f1576001600160401b039080358281116105f057610b7e9036908301611464565b9060243583811161077a57610b969036908301611464565b9285549260ff94858560081c161593848095610f0b575b8015610ef5575b15610e9b57600195858760ff198316178b55610e8a575b50610be4878a5460081c16610bdf81611c21565b611c21565b610bed33611482565b610c00878a5460081c16610bdf81611c21565b8251848111610e775780610c1560c9546115fd565b94601f95868111610e26575b50602090868311600114610dc5578c92610dba575b5050600019600383901b1c191690871b1760c9555b8151938411610da75750908291610c6360ca546115fd565b828111610d54575b506020918311600114610cf3578892610ce8575b5050600019600383901b1c191690831b1760ca555b610ca88554938460081c16610bdf81611c21565b610cb0578380f35b7f7f26b83ff96e1f2b6a682f133852f6798a09c465da95921460cefb38474024989260209261ff001916855551908152a13880808380f35b015190503880610c7f565b60ca89528189208694509190601f1984168a5b818110610d3c57508411610d23575b505050811b0160ca55610c94565b015160001960f88460031b161c19169055388080610d15565b82840151855588969094019360209384019301610d06565b9091925060ca8952602089208380860160051c82019260208710610d9e575b91869589929594930160051c01915b828110610d90575050610c6b565b8b8155869550889101610d82565b92508192610d73565b634e487b7160e01b895260419052602488fd5b015190503880610c36565b60c98d52818d208a94509190601f1984168e5b818110610e0e57508411610df5575b505050811b0160c955610c4b565b015160001960f88460031b161c19169055388080610de7565b8284015185558c969094019360209384019301610dd8565b90915060c98c5260208c208680850160051c82019260208610610e6e575b918b91869594930160051c01915b828110610e60575050610c21565b8e81558594508b9101610e52565b92508192610e44565b634e487b7160e01b8a526041825260248afd5b61ffff191661010117895538610bcb565b608490602089519162461bcd60e51b8352820152602e60248201527f496e697469616c697a61626c653a20636f6e747261637420697320616c72656160448201526d191e481a5b9a5d1a585b1a5e995960921b6064820152fd5b50303b158015610bb45750600187871614610bb4565b50600187871610610bad565b8382346102035761038e61077791610f2e36611389565b91925192610f3b846113be565b8684526107676107628433611737565b8382346102035760203660031901126102035760209060fd549051908152f35b9083346101b257816003193601126101b257610f85611358565b60243590610f928161151c565b821015610fc0576001600160a01b0316825260fb602090815283832091835290815290829020548251908152f35b835162461bcd60e51b8152602081870152602b60248201527f455243373231456e756d657261626c653a206f776e657220696e646578206f7560448201526a74206f6620626f756e647360a81b6064820152608490fd5b83346101b25761077761102936611389565b916110376107628433611737565b6117ff565b83823461020357816003193601126102035760209060fd549051908152f35b909150346106f157816003193601126106f157611076611358565b6024359290916001600160a01b0391908280611091876115da565b1694169380851461118057803314908115611161575b50156110f9575083855260cd602052842080546001600160a01b031916831790556110d1836115da565b167f8c5be1e5ebec7d5bd14f71427d1e84f3dd0314c0f7b2291e5b200ac8c7c3b9258480a480f35b6020608492519162461bcd60e51b8352820152603d60248201527f4552433732313a20617070726f76652063616c6c6572206973206e6f7420746f60448201527f6b656e206f776e6572206f7220617070726f76656420666f7220616c6c0000006064820152fd5b9050865260ce60205281862033875260205260ff8287205416386110a7565b506020608492519162461bcd60e51b8352820152602160248201527f4552433732313a20617070726f76616c20746f2063757272656e74206f776e656044820152603960f91b6064820152fd5b9083346101b25760203660031901126101b25750610aa960209235611637565b8382346102035781600319360112610203578051908260c95461120f816115fd565b808552906001908181169081156108ec575060011461123a57505050610881826106849403836113ef565b60c98352602095507f66be4f155c5ef2ebd3772b228f2f00681e4ed5826cdb3b1943cc11ad15ad1d285b828410611280575050508261068494610881928201019461086f565b8054868501880152928601928101611264565b8491346106f15760203660031901126106f1573563ffffffff60e01b81168091036106f1576020925063780e9d6360e01b81149081156112d5575b5015158152f35b6380ac58cd60e01b811491508115611307575b81156112f6575b50836112ce565b6301ffc9a760e01b149050836112ef565b635b5e139f60e01b811491506112e8565b919082519283825260005b848110611344575050826000602080949584010152601f8019910116010190565b602081830181015184830182015201611323565b600435906001600160a01b038216820361136e57565b600080fd5b602435906001600160a01b038216820361136e57565b606090600319011261136e576001600160a01b0390600435828116810361136e5791602435908116810361136e579060443590565b602081019081106001600160401b038211176113d957604052565b634e487b7160e01b600052604160045260246000fd5b601f909101601f19168101906001600160401b038211908210176113d957604052565b6001600160401b0381116113d957601f01601f191660200190565b92919261143982611412565b9161144760405193846113ef565b82948184528183011161136e578281602093846000960137010152565b9080601f8301121561136e5781602061147f9335910161142d565b90565b606580546001600160a01b0319908116909155603380549182166001600160a01b039384169081179091559116600080516020611ced833981519152600080a3565b6033546001600160a01b031633036114d857565b606460405162461bcd60e51b815260206004820152602060248201527f4f776e61626c653a2063616c6c6572206973206e6f7420746865206f776e65726044820152fd5b6001600160a01b0316801561153c5760005260cc60205260406000205490565b60405162461bcd60e51b815260206004820152602960248201527f4552433732313a2061646472657373207a65726f206973206e6f7420612076616044820152683634b21037bbb732b960b91b6064820152608490fd5b1561159a57565b60405162461bcd60e51b8152602060048201526018602482015277115490cdcc8c4e881a5b9d985b1a59081d1bdad95b88125160421b6044820152606490fd5b600090815260cb60205260409020546001600160a01b031661147f811515611593565b90600182811c9216801561162d575b602083101461161757565b634e487b7160e01b600052602260045260246000fd5b91607f169161160c565b61164361061682611a2c565b600090815260cd60205260409020546001600160a01b031690565b1561166557565b60405162461bcd60e51b815260206004820152602d60248201527f4552433732313a2063616c6c6572206973206e6f7420746f6b656e206f776e6560448201526c1c881bdc88185c1c1c9bdd9959609a1b6064820152608490fd5b60809060208152603260208201527f4552433732313a207472616e7366657220746f206e6f6e20455243373231526560408201527131b2b4bb32b91034b6b83632b6b2b73a32b960711b60608201520190565b1561171a57565b60405162461bcd60e51b815280611733600482016116c0565b0390fd5b906001600160a01b03808061174b846115da565b1693169183831493841561177e575b508315611768575b50505090565b61177491929350611637565b1614388080611762565b90935060005260ce60205260406000208260005260205260ff60406000205416923861175a565b156117ac57565b60405162461bcd60e51b815260206004820152602560248201527f4552433732313a207472616e736665722066726f6d20696e636f72726563742060448201526437bbb732b960d91b6064820152608490fd5b6118239161180c846115da565b6001600160a01b03938484169391851684146117a5565b8382169384156119db57839182611922575060fd54600087815260fe602052604090208190559150600160401b8210156113d957611889926118708761030185600189970160fd55611bf0565b8286036118ef575b50611882866115da565b16146117a5565b600080516020611d0d833981519152600084815260cd6020526040812060018060a01b03199081815416905583825260cc602052604082206000198154019055848252604082206001815401905585825260cb60205284604083209182541617905580a4565b6118f89061151c565b6040600087815260fb602052818120838252602052888282205588815260fc602052205538611878565b858303611934575b5061188992611870565b61193f91925061151c565b6000198101919082116119c55761188992849260009088825260209060fc82526040918284205482810361198e575b508a8452838381205586845260fb8152828420918452528120559261192a565b87855260fb825283852083865282528385205488865260fb835284862082875283528085872055855260fc8252838520553861196e565b634e487b7160e01b600052601160045260246000fd5b60405162461bcd60e51b8152602060048201526024808201527f4552433732313a207472616e7366657220746f20746865207a65726f206164646044820152637265737360e01b6064820152608490fd5b600090815260cb60205260409020546001600160a01b0316151590565b9192600092909190803b15611b5b57611a97946040518092630a85bd0160e11b9485835233600484015287602484015260448301526080606483015281878160209a8b966084830190611318565b03926001600160a01b03165af1849181611b1b575b50611b0a575050503d600014611b02573d611ac681611412565b90611ad460405192836113ef565b81528091833d92013e5b80519182611aff5760405162461bcd60e51b815280611733600482016116c0565b01fd5b506060611ade565b6001600160e01b0319161492509050565b9091508581813d8311611b54575b611b3381836113ef565b810103126105f057516001600160e01b0319811681036105f0579038611aac565b503d611b29565b5050915050600190565b9293600093909291803b15611be557948491611bbf9660405180948193630a85bd0160e11b9788845233600485015260018060a01b0380921660248501526044840152608060648401528260209b8c976084830190611318565b0393165af1849181611b1b5750611b0a575050503d600014611b02573d611ac681611412565b505050915050600190565b60fd54811015611c0b5760fd60005260206000200190600090565b634e487b7160e01b600052603260045260246000fd5b15611c2857565b60405162461bcd60e51b815260206004820152602b60248201527f496e697469616c697a61626c653a20636f6e7472616374206973206e6f74206960448201526a6e697469616c697a696e6760a81b6064820152608490fd5b15611c8857565b60405162461bcd60e51b815260206004820152601c60248201527b115490cdcc8c4e881d1bdad95b88185b1c9958591e481b5a5b9d195960221b6044820152606490fdfe17307eab39ab6107e8899845ad3d59bd9653f200f220920489ca2b5937696c318be0079c531659141344cd1fd0a4f28419497f9722a3daafe3b4186f6b6457e0ddf252ad1be2c89b69c2b068fc378daa952ba7f163c4a11628f55a4df523b3efa26469706673582212202c2b52473e8a2dc25a7ac18288adac656c9340910af73ddbe60aaf140533fade64736f6c6343000811003386edab837edec9b099eb0aa474d221a1b69172248fcca83c120f72e6f35723818be0079c531659141344cd1fd0a4f28419497f9722a3daafe3b4186f6b6457e0a26469706673582212209f9556535265a683478bf2435d5d9f4e953480a843127f8a6a325483b273c6e964736f6c63430008110033",
  "linkReferences": {},
  "deployedLinkReferences": {}
}