{
  "_format": "hh-sol-artifact-1",
  "contractName": "Curation",
  "sourceName": "contracts/Curation.sol",
  "abi": [
    {
      "anonymous": false,
      "inputs": [
        {
          "indexed": true,
          "internalType": "uint256",
          "name": "id",
          "type": "uint256"
        },
        {
          "indexed": false,
          "internalType": "string",
          "name": "eventType",
          "type": "string"
        },
        {
          "indexed": false,
          "internalType": "uint256",
          "name": "galleryId",
          "type": "uint256"
        },
        {
          "indexed": false,
          "internalType": "address",
          "name": "collection",
          "type": "address"
        },
        {
          "indexed": false,
          "internalType": "uint256",
          "name": "tokenId",
          "type": "uint256"
        },
        {
          "indexed": false,
          "internalType": "address",
          "name": "origin",
          "type": "address"
        },
        {
          "indexed": false,
          "internalType": "uint64",
          "name": "expiration",
          "type": "uint64"
        },
        {
          "indexed": false,
          "internalType": "uint256",
          "name": "price",
          "type": "uint256"
        },
        {
          "indexed": false,
          "internalType": "string",
          "name": "location",
          "type": "string"
        },
        {
          "indexed": false,
          "internalType": "string",
          "name": "url",
          "type": "string"
        },
        {
          "indexed": false,
          "internalType": "string",
          "name": "detail",
          "type": "string"
        },
        {
          "indexed": false,
          "internalType": "uint64",
          "name": "timestamp",
          "type": "uint64"
        }
      ],
      "name": "ExhibitChanged",
      "type": "event"
    },
    {
      "anonymous": false,
      "inputs": [
        {
          "indexed": true,
          "internalType": "uint256",
          "name": "id",
          "type": "uint256"
        },
        {
          "indexed": false,
          "internalType": "string",
          "name": "eventType",
          "type": "string"
        },
        {
          "indexed": false,
          "internalType": "address",
          "name": "collection",
          "type": "address"
        },
        {
          "indexed": false,
          "internalType": "uint256",
          "name": "tokenId",
          "type": "uint256"
        },
        {
          "indexed": false,
          "internalType": "address",
          "name": "owner",
          "type": "address"
        },
        {
          "indexed": false,
          "internalType": "string",
          "name": "spaceType",
          "type": "string"
        },
        {
          "indexed": false,
          "internalType": "string",
          "name": "name",
          "type": "string"
        },
        {
          "indexed": false,
          "internalType": "string",
          "name": "metadataUri",
          "type": "string"
        },
        {
          "indexed": false,
          "internalType": "bool",
          "name": "isToken",
          "type": "bool"
        },
        {
          "indexed": false,
          "internalType": "uint64",
          "name": "timestamp",
          "type": "uint64"
        },
        {
          "indexed": false,
          "internalType": "address[]",
          "name": "payees",
          "type": "address[]"
        },
        {
          "indexed": false,
          "internalType": "uint256[]",
          "name": "commissionRates",
          "type": "uint256[]"
        },
        {
          "indexed": false,
          "internalType": "address",
          "name": "commissionPool",
          "type": "address"
        },
        {
          "indexed": false,
          "internalType": "address[]",
          "name": "admissions",
          "type": "address[]"
        }
      ],
      "name": "GalleryChanged",
      "type": "event"
    },
    {
      "anonymous": false,
      "inputs": [
        {
          "indexed": false,
          "internalType": "uint8",
          "name": "version",
          "type": "uint8"
        }
      ],
      "name": "Initialized",
      "type": "event"
    },
    {
      "anonymous": false,
      "inputs": [
        {
          "indexed": true,
          "internalType": "uint256",
          "name": "id",
          "type": "uint256"
        },
        {
          "indexed": false,
          "internalType": "string",
          "name": "eventType",
          "type": "string"
        },
        {
          "indexed": false,
          "internalType": "address",
          "name": "collection",
          "type": "address"
        },
        {
          "indexed": false,
          "internalType": "uint256",
          "name": "tokenId",
          "type": "uint256"
        },
        {
          "indexed": false,
          "internalType": "address",
          "name": "from",
          "type": "address"
        },
        {
          "indexed": false,
          "internalType": "address",
          "name": "to",
          "type": "address"
        },
        {
          "indexed": false,
          "internalType": "uint256",
          "name": "price",
          "type": "uint256"
        },
        {
          "indexed": false,
          "internalType": "uint256",
          "name": "galleryId",
          "type": "uint256"
        },
        {
          "indexed": false,
          "internalType": "uint64",
          "name": "offerStartAt",
          "type": "uint64"
        },
        {
          "indexed": false,
          "internalType": "uint64",
          "name": "offerExpiredAt",
          "type": "uint64"
        },
        {
          "indexed": false,
          "internalType": "uint64",
          "name": "exhibitExpiredAt",
          "type": "uint64"
        },
        {
          "indexed": false,
          "internalType": "string",
          "name": "url",
          "type": "string"
        },
        {
          "indexed": false,
          "internalType": "string",
          "name": "detail",
          "type": "string"
        },
        {
          "indexed": false,
          "internalType": "uint64",
          "name": "timestamp",
          "type": "uint64"
        }
      ],
      "name": "OfferChanged",
      "type": "event"
    },
    {
      "anonymous": false,
      "inputs": [
        {
          "indexed": true,
          "internalType": "address",
          "name": "previousOwner",
          "type": "address"
        },
        {
          "indexed": true,
          "internalType": "address",
          "name": "newOwner",
          "type": "address"
        }
      ],
      "name": "OwnershipTransferStarted",
      "type": "event"
    },
    {
      "anonymous": false,
      "inputs": [
        {
          "indexed": true,
          "internalType": "address",
          "name": "previousOwner",
          "type": "address"
        },
        {
          "indexed": true,
          "internalType": "address",
          "name": "newOwner",
          "type": "address"
        }
      ],
      "name": "OwnershipTransferred",
      "type": "event"
    },
    {
      "inputs": [],
      "name": "acceptOwnership",
      "outputs": [],
      "stateMutability": "nonpayable",
      "type": "function"
    },
    {
      "inputs": [
        {
          "internalType": "uint256[]",
          "name": "galleryIds",
          "type": "uint256[]"
        },
        {
          "internalType": "uint256[]",
          "name": "exhibitIds",
          "type": "uint256[]"
        }
      ],
      "name": "batchList",
      "outputs": [],
      "stateMutability": "nonpayable",
      "type": "function"
    },
    {
      "inputs": [
        {
          "internalType": "uint256[]",
          "name": "galleryIds",
          "type": "uint256[]"
        },
        {
          "internalType": "address[]",
          "name": "collections",
          "type": "address[]"
        },
        {
          "internalType": "uint256[]",
          "name": "tokenIds",
          "type": "uint256[]"
        },
        {
          "internalType": "uint256[]",
          "name": "prices",
          "type": "uint256[]"
        }
      ],
      "name": "batchListOwned",
      "outputs": [],
      "stateMutability": "nonpayable",
      "type": "function"
    },
    {
      "inputs": [
        {
          "internalType": "uint256",
          "name": "galleryId",
          "type": "uint256"
        },
        {
          "internalType": "uint256",
          "name": "exhibitId",
          "type": "uint256"
        }
      ],
      "name": "buy",
      "outputs": [],
      "stateMutability": "payable",
      "type": "function"
    },
    {
      "inputs": [
        {
          "internalType": "uint256",
          "name": "offerId",
          "type": "uint256"
        }
      ],
      "name": "cancelOffer",
      "outputs": [],
      "stateMutability": "nonpayable",
      "type": "function"
    },
    {
      "inputs": [
        {
          "internalType": "address",
          "name": "collection",
          "type": "address"
        },
        {
          "internalType": "uint256",
          "name": "tokenId",
          "type": "uint256"
        },
        {
          "internalType": "string",
          "name": "spaceType",
          "type": "string"
        },
        {
          "internalType": "string",
          "name": "name",
          "type": "string"
        },
        {
          "internalType": "string",
          "name": "metadataUri",
          "type": "string"
        },
        {
          "internalType": "bool",
          "name": "isToken",
          "type": "bool"
        },
        {
          "internalType": "address[]",
          "name": "payees",
          "type": "address[]"
        },
        {
          "internalType": "uint256[]",
          "name": "commissionRates",
          "type": "uint256[]"
        },
        {
          "internalType": "address[]",
          "name": "admissions",
          "type": "address[]"
        }
      ],
      "name": "createGallery",
      "outputs": [],
      "stateMutability": "nonpayable",
      "type": "function"
    },
    {
      "inputs": [
        {
          "internalType": "address",
          "name": "to",
          "type": "address"
        },
        {
          "internalType": "address",
          "name": "collection",
          "type": "address"
        },
        {
          "internalType": "uint256",
          "name": "tokenId",
          "type": "uint256"
        },
        {
          "internalType": "string",
          "name": "spaceType",
          "type": "string"
        },
        {
          "internalType": "string",
          "name": "name",
          "type": "string"
        },
        {
          "internalType": "string",
          "name": "metadataUri",
          "type": "string"
        },
        {
          "internalType": "bool",
          "name": "isToken",
          "type": "bool"
        },
        {
          "internalType": "address[]",
          "name": "payees",
          "type": "address[]"
        },
        {
          "internalType": "uint256[]",
          "name": "commissionRates",
          "type": "uint256[]"
        },
        {
          "internalType": "address[]",
          "name": "admissions",
          "type": "address[]"
        }
      ],
      "name": "createGalleryTo",
      "outputs": [],
      "stateMutability": "nonpayable",
      "type": "function"
    },
    {
      "inputs": [],
      "name": "initialize",
      "outputs": [],
      "stateMutability": "nonpayable",
      "type": "function"
    },
    {
      "inputs": [
        {
          "internalType": "uint256",
          "name": "galleryId",
          "type": "uint256"
        },
        {
          "internalType": "uint256",
          "name": "exhibitId",
          "type": "uint256"
        },
        {
          "internalType": "string",
          "name": "location",
          "type": "string"
        }
      ],
      "name": "list",
      "outputs": [],
      "stateMutability": "nonpayable",
      "type": "function"
    },
    {
      "inputs": [
        {
          "internalType": "uint256",
          "name": "galleryId",
          "type": "uint256"
        },
        {
          "internalType": "address",
          "name": "collection",
          "type": "address"
        },
        {
          "internalType": "uint256",
          "name": "tokenId",
          "type": "uint256"
        },
        {
          "internalType": "uint256",
          "name": "price",
          "type": "uint256"
        },
        {
          "internalType": "string",
          "name": "location",
          "type": "string"
        }
      ],
      "name": "listOwned",
      "outputs": [],
      "stateMutability": "nonpayable",
      "type": "function"
    },
    {
      "inputs": [],
      "name": "owner",
      "outputs": [
        {
          "internalType": "address",
          "name": "",
          "type": "address"
        }
      ],
      "stateMutability": "view",
      "type": "function"
    },
    {
      "inputs": [],
      "name": "pendingOwner",
      "outputs": [
        {
          "internalType": "address",
          "name": "",
          "type": "address"
        }
      ],
      "stateMutability": "view",
      "type": "function"
    },
    {
      "inputs": [
        {
          "internalType": "uint256",
          "name": "galleryId",
          "type": "uint256"
        },
        {
          "internalType": "uint256",
          "name": "exhibitId",
          "type": "uint256"
        }
      ],
      "name": "redeemForce",
      "outputs": [],
      "stateMutability": "nonpayable",
      "type": "function"
    },
    {
      "inputs": [],
      "name": "renounceOwnership",
      "outputs": [],
      "stateMutability": "nonpayable",
      "type": "function"
    },
    {
      "inputs": [
        {
          "internalType": "uint256",
          "name": "offerId",
          "type": "uint256"
        },
        {
          "internalType": "bool",
          "name": "accept",
          "type": "bool"
        }
      ],
      "name": "replyOffer",
      "outputs": [],
      "stateMutability": "nonpayable",
      "type": "function"
    },
    {
      "inputs": [
        {
          "internalType": "address",
          "name": "collection",
          "type": "address"
        },
        {
          "internalType": "uint256",
          "name": "tokenId",
          "type": "uint256"
        },
        {
          "internalType": "uint256",
          "name": "galleryId",
          "type": "uint256"
        },
        {
          "internalType": "uint256",
          "name": "price",
          "type": "uint256"
        },
        {
          "internalType": "uint64",
          "name": "offerDuration",
          "type": "uint64"
        },
        {
          "internalType": "uint64",
          "name": "exhibitExpiredAt",
          "type": "uint64"
        },
        {
          "internalType": "string",
          "name": "url",
          "type": "string"
        },
        {
          "internalType": "string",
          "name": "detail",
          "type": "string"
        }
      ],
      "name": "sendOffer",
      "outputs": [],
      "stateMutability": "nonpayable",
      "type": "function"
    },
    {
      "inputs": [
        {
          "internalType": "address",
          "name": "newOwner",
          "type": "address"
        }
      ],
      "name": "transferOwnership",
      "outputs": [],
      "stateMutability": "nonpayable",
      "type": "function"
    },
    {
      "inputs": [
        {
          "internalType": "uint256",
          "name": "newFeeRate",
          "type": "uint256"
        }
      ],
      "name": "updateBaseFeeRate",
      "outputs": [],
      "stateMutability": "nonpayable",
      "type": "function"
    }
  ],
  "bytecode": "0x6080806040523461001657615d62908161001c8239f35b600080fdfe6080604052600436101561001257600080fd5b6000803560e01c806317a59f9d146138c95780631ca177ed14613149578063274a192b146130ac57806333b80a9614613065578063715018a61461301057806379ba509714612f885780638129fc1c14612d625780638da5cb5b14612d39578063a815b68914612d00578063abd46f6e1461259f578063ae9fc9e714611d33578063bb41edd714611633578063d4b0cc6714611392578063d6febde814610d80578063e30c397814610d57578063e3a4748a146104e9578063ef706adf146101535763f2fde38b146100e357600080fd5b34610150576020366003190112610150576100fc613902565b610104613b32565b60a680546001600160a01b0319166001600160a01b039283169081179091556074549091167f38d16b8cac22d99fc7c124b9cd0de2d3fa1faef420bfe791d8c362d765e227008380a380f35b80fd5b503461015057602036600319011261015057600435610170613d83565b61018161017c8261512e565b613bea565b808252603c6020526040822060405161019981613947565b8154815260018201546001600160a01b039081166020830152600283015460408084019190915260038401548216606084019081526004850154909216608080850191909152600585015460a0850152600685015460c085015260078501546001600160401b0380821660e08701529281901c8316610100860152901c166101208301529161025c906101809060ff90600a9061023860088201613dd9565b61014087015261024a60098201613dd9565b61016087015201541692019182613c3e565b5160048110156104d5576102709015613e7d565b516001600160a01b0316330361048457808252603c602052600a6040832001600360ff19825416179055808252603c602052600080516020615cad8339815191526040832061037c60ff600a604051936102c985613947565b8054855260018101546001600160a01b03908116602087015260028201546040808801919091526003830154821660608801526004830154909116608080880191909152600583015460a0880152600683015460c088015260078301546001600160401b0380821660e08a01529281901c8316610100890152901c1661012086015261035760088201613dd9565b61014086015261036960098201613dd9565b6101608601520154166101808301613c3e565b602061046a60018060a01b0382840151169261045b60408201519160018060a01b0360608201511660018060a01b0360808301511660a083015160c084015160018060401b0360e0860151169160018060401b03610100870151169360018060401b036101208801511695610160610140890151980151996040519d8e9d8e600d6101a08083528201526c13d999995c90d85b98d95b1959609a1b6101c0820152015260408d015260608c015260808b015260a08a015260c089015260e08801526101008701526101208601526101e080610140870152850190613d43565b90838203610160850152613d43565b426001600160401b03166101808301520390a26001805580f35b60405162461bcd60e51b815260206004820152602360248201527f4f6e6c792067616c6c657279206f776e65722063616e2063616e63656c206f666044820152623332b960e91b6064820152608490fd5b634e487b7160e01b84526021600452602484fd5b50346101505761012036600319011261015057610504613902565b6044356001600160401b038111610d4e576105239036906004016139a1565b6064356001600160401b038111610d4a576105429036906004016139a1565b926084356001600160401b0381116109a1576105629036906004016139a1565b9360a435151560a43503610d525760c4356001600160401b038111610d4e5761058f903690600401613a6c565b9360e4356001600160401b038111610d4a576105af903690600401613a0e565b936001600160401b036101043511610d4a576105d13661010435600401613a6c565b6105d9613d83565b60a4351560a435610cbb575b15610c76578651865110610c3757865160375410610bf657849685975b815160ff8a16101561063257600161062960ff92610622848d168c613ec5565b5190615044565b99011697610602565b89909795969760385410610ba55760a435610b35575b6001603354019687603355878952603e60205260408920888155855160018060401b0381116109c25761068b816106826004850154613c60565b60048501613cdb565b806020601f8211600114610acb578c91610ac0575b508160011b916000199060031b1c19161760048201555b6001810180546001600160a01b0319166001600160a01b038916179055602435600282015581516001600160401b0381116109c257610706816106fd6005850154613c60565b60058501613cdb565b806020601f8211600114610a56578c91610a4b575b508160011b916000199060031b1c19161760058201555b6003810180546001600160a01b0319163317905582516001600160401b0381116109c257610770816107676006850154613c60565b60068501613cdb565b806020601f82116001146109e1578c916109d6575b508160011b916000199060031b1c19161760068201555b6036546007820180546001600160a01b0319166001600160a01b03929092169190911790558451906001600160401b0382116109c257600160401b82116109c2576008016107ef82825481845583613d20565b60208601908b5260208b208b5b8381106109a55750506036548b92506001600160a01b03169050803b156109a157604051630fb1a81d60e11b8152600481018b90526060602482015290829082908183816108638f610851606484018e615067565b838103600319016044850152906150a4565b03925af1801561099657610974575b5050600080516020615ccd833981519152966109466020969461091d61096a979561090f6109559661090160018060a01b03603654169a6040519e8f9e8f91600e6101a08085528401526d11d85b1b195c9e50dc99585d195960921b6101c084015260018060a01b03169101528d60406024359101528d6060339101528d6101e0908160808201520190613d43565b8c810360a08e015290613d43565b908a820360c08c0152613d43565b60a435151560e08a0152426001600160401b03166101008a01528881036101208a015290615067565b908682036101408801526150a4565b91610160850152838203610180850152615067565b0390a26001805580f35b610982909694959396613934565b61099257888a9592949395610872565b8880fd5b6040513d84823e3d90fd5b5080fd5b82516001600160a01b0316818301556020909201916001016107fc565b634e487b7160e01b8b52604160045260248bfd5b90508401518c610785565b9150600683018c5260208c208c925b601f1983168410610a33576001935082601f19811610610a1a575b5050811b01600682015561079c565b86015160001960f88460031b161c191690558c80610a0b565b868101518255602093840193600190920191016109f0565b90508301518c61071b565b9150600583018c5260208c208c925b601f1983168410610aa8576001935082601f19811610610a8f575b5050811b016005820155610732565b85015160001960f88460031b161c191690558c80610a80565b85810151825560209384019360019092019101610a65565b90508701518c6106a0565b9150600483018c5260208c208c925b601f1983168410610b1d576001935082601f19811610610b04575b5050811b0160048201556106b7565b89015160001960f88460031b161c191690558c80610af5565b89810151825560209384019360019092019101610ada565b6001600160a01b0385163b15610ba157604051637a94c56560e11b815233600482015260248035908201526001604482015288908181606481836001600160a01b038c165af1801561099657610b8d575b5050610648565b610b9690613934565b610ba1578789610b86565b8780fd5b60405162461bcd60e51b815260206004820152602360248201527f4578636565646564204d41585f544f54414c5f434f4d4d495353494f4e5f524160448201526254455360e81b6064820152608490fd5b60405162461bcd60e51b8152602060048201526019602482015278115e18d9595919590813505617d41056515154d7d0d3d55395603a1b6044820152606490fd5b60405162461bcd60e51b81526020600482015260176024820152764c61636b206f6620636f6d6d697373696f6e207261746560481b6044820152606490fd5b60405162461bcd60e51b815260206004820152601e60248201527f4e6f742067616c6c657279204e46542074656d706c617465206f776e656400006044820152606490fd5b50604051627eeac760e11b815260208180610cdc6024353360048401614ac9565b03816001600160a01b0388165afa908115610d3f578691610d0a575b50151580156105e5575060a4356105e5565b90506020813d8211610d37575b81610d246020938361397e565b81010312610d33575138610cf8565b8580fd5b3d9150610d17565b6040513d88823e3d90fd5b8380fd5b8280fd5b600080fd5b503461015057806003193601126101505760a6546040516001600160a01b039091168152602090f35b50610d8a36613ada565b9091610d94613d83565b610da061017c84615141565b610db1610dac8361511b565b614c17565b818152603d60205260408120610e6960ff600960405193610dd185613918565b805485526001810154602086015260028101546001600160a01b039081166040870152600382015460608701526004820154908116608087015260a090811c6001600160401b031690860152600581015460c0860152610e3360068201613dd9565b60e0860152610e4460078201613dd9565b610100860152610e5660088201613dd9565b6101208601520154166101408301614ae4565b60c08101513403611356576036546040516337bcb2eb60e01b815260048101869052929485918290859060249082906001600160a01b03165afa938415610996578290839561120d575b5082965b8151881015610f9c576001600160a01b03610ed28984613ec5565b5116610ede8988613ec5565b5160c0870151918183810204831482151715610f88576036546001600160a01b031690813b15610ba1578790604460405180948193636e553f6560e01b83528b60048401526024830152670de0b6b3a764000088880204905af18015610f7d57908791610f69575b505091670de0b6b3a7640000610f6192600194020490615044565b970196610eb7565b610f7290613934565b610d33578538610f46565b6040513d89823e3d90fd5b634e487b7160e01b87526011600452602487fd5b8487859260018060a01b0360808401511660c08401519182818103116111f9578580938193829383928181146111ef575b0391f115610996578260018060a01b03604084015116602060608501516024604051809481936331a9108f60e11b835260048301525afa9081156109965782916111b5575b5060018060a01b03604085015116906060850151823b15610d4a576040516323b872dd60e01b81526001600160a01b03909216600483015233602483015260448201529082908290606490829084905af18015610996576111a1575b50819052603d60205260096040842001600360ff198254161790558252603d6020526000600660408420016110ac6110a68254613c60565b82613cb1565b55600080516020615d0d8339815191526a115e1a1a589a5d14dbdb1960aa1b61018061118784519461117860208201519161116960018060a01b03604083015116606083015160018060a01b0360808501511660018060401b0360a0860151169060c08601519260e087015194610120610100890151980151996040519d8e9d8e600b610160808352820152015260208d015260408c015260608b015260808a015260a089015260c08801526101a08060e0890152870190613d43565b90858203610100870152613d43565b90838203610120850152613d43565b426001600160401b03166101408301520390a26001805580f35b6111aa90613934565b610d4e57828461106e565b90506020813d6020116111e7575b816111d06020938361397e565b810103126109a1576111e190613c2a565b85611012565b3d91506111c3565b6108fc9350610fcd565b634e487b7160e01b86526011600452602486fd5b9450503d938483823e611220858261397e565b6040818681010312610d4e578051906001600160401b038211610d4a57858101601f838301011215610d4a5781810151611259816139f7565b92611267604051948561397e565b818452602084019088840160208460051b8387010101116113335790602082850101915b60208460051b8287010101831061133b57505050506020810151956001600160401b03871161133757808201601f8884010112156113375786820151916112d1836139f7565b976112df604051998a61397e565b8389526020890192820160208560051b838501010111611333579190602083820101925b60208560051b8284010101841061131f57505050505038610eb3565b602080809486518152019401939250611303565b8680fd5b8480fd5b602080809361134986613c2a565b815201930192915061128b565b60405162461bcd60e51b8152602060048201526014602482015273496e73756666696369656e742062616c616e636560601b6044820152606490fd5b5034610150576113a136613ada565b6113a9613b32565b6113b1613d83565b6113bd61017c83615141565b6113c9610dac8261511b565b808352603d9182602052604084205415159081611622575b50806115b8575b15611574578083528160205260018060a01b0360046040852001541633148015611560575b15611508578083528160205260096040842001600560ff1982541617905582526020526040812061144860ff600960405193610dd185613918565b600080516020615d0d8339815191526e115e1a1a589a5d14995919595b5959608a1b61018061118784519461117860208201519161116960018060a01b03604083015116606083015160018060a01b0360808501511660018060401b0360a0860151169060c08601519260e087015194610120610100890151980151996040519d8e9d8e600f610160808352820152015260208d015260408c015260608b015260808a015260a089015260c08801526101a08060e0890152870190613d43565b60405162461bcd60e51b815260206004820152602a60248201527f43616c6c65722069736e2774206f726967696e616c206f776e6572206f6620746044820152691a1948195e1a1a589a5d60b21b6064820152608490fd5b506074546001600160a01b0316331461140d565b606460405162461bcd60e51b815260206004820152602060248201527f45786869626974206e6f7420666f756e6420696e207468652067616c6c6572796044820152fd5b5060ff60096040852001541660068110156104d5576001148015611600575b806113e857508083528160205260ff60096040852001541660068110156104d5576004146113e8565b508083528160205260ff60096040852001541660068110156104d557156115d7565b9050600160408520015414386113e1565b5034610150576101403660031901126101505761164e613902565b906116576138ec565b906064356001600160401b0381116109a1576116779036906004016139a1565b906084356001600160401b0381116109a1576116979036906004016139a1565b60a4356001600160401b038111610d4e576116b69036906004016139a1565b9460c435151560c43503610d525760e4356001600160401b038111610d4a576116e3903690600401613a6c565b94610104356001600160401b03811161133757611704903690600401613a0e565b946001600160401b036101243511611337576117263661012435600401613a6c565b9061172f613d83565b60c4351560c435611cb3575b15610c76578751875110610c3757875160375410610bf657859786985b815160ff8b16101561178157600161177860ff92610622848e168d613ec5565b9a011698611758565b908a899260385410610ba55760c435611c4e575b6001603354019788603355888a52603e60205260408a20898155855160018060401b038111611adb576117cf816106826004850154613c60565b806020601f8211600114611be4578d91611bd9575b508160011b916000199060031b1c19161760048201555b6001810180546001600160a01b0319166001600160a01b038a16179055604435600282015581516001600160401b038111611adb57611841816106fd6005850154613c60565b806020601f8211600114611b6f578d91611b64575b508160011b916000199060031b1c19161760058201555b6003810180546001600160a01b0319166001600160a01b038b1617905582516001600160401b038111611adb576118ab816107676006850154613c60565b806020601f8211600114611afa578d91611aef575b508160011b916000199060031b1c19161760068201555b6036546007820180546001600160a01b0319166001600160a01b03929092169190911790558651906001600160401b038211611adb57600160401b8211611adb5760080161192a82825481845583613d20565b60208801908c5260208c208c5b838110611abe5750506036548c92506001600160a01b03169050803b156109a157816040518092630fb1a81d60e11b82528d60048301526060602483015281838161199a611988606483018d615067565b8281036003190160448401528d6150a4565b03925af1801561099657611aa6575b5050603654604080516101a0808252600e908201526d11d85b1b195c9e50dc99585d195960921b6101c08201526001600160a01b03998a1660208201526044359181019190915298881660608a01526101e060808a01819052899890911695611a1491890190613d43565b87810360a0890152611a2591613d43565b86810360c0880152611a3691613d43565b60c435151560e0870152426001600160401b0316610100870152858103610120870152611a6291615067565b848103610140860152611a74916150a4565b90610160840152828103610180840152611a8d91615067565b03600080516020615ccd83398151915291a26001805580f35b611aaf90613934565b611aba57898b6119a9565b8980fd5b82516001600160a01b031681830155602090920191600101611937565b634e487b7160e01b8c52604160045260248cfd5b90508401518d6118c0565b9150600683018d5260208d208d925b601f1983168410611b4c576001935082601f19811610611b33575b5050811b0160068201556118d7565b86015160001960f88460031b161c191690558d80611b24565b86810151825560209384019360019092019101611b09565b90508301518d611856565b9150600583018d5260208d208d925b601f1983168410611bc1576001935082601f19811610611ba8575b5050811b01600582015561186d565b85015160001960f88460031b161c191690558d80611b99565b85810151825560209384019360019092019101611b7e565b90508701518d6117e4565b9150600483018d5260208d208d925b601f1983168410611c36576001935082601f19811610611c1d575b5050811b0160048201556117fb565b89015160001960f88460031b161c191690558d80611c0e565b89810151825560209384019360019092019101611bf3565b886001600160a01b038716803b156109a157818091606460405180948193637a94c56560e11b83523360048401526044356024840152600160448401525af1801561099657611c9f575b5050611795565b611ca890613934565b61099257888a611c98565b50604051627eeac760e11b815260208180611cd46044353360048401614ac9565b03816001600160a01b0388165afa908115610f7d578791611d02575b501515801561173b575060c43561173b565b90506020813d8211611d2b575b81611d1c6020938361397e565b81010312611333575138611cf0565b3d9150611d0f565b5034610150576080366003190112610150576004356001600160401b0381116109a157611d64903690600401613a0e565b6024356001600160401b038111610d4e57611d83903690600401613a6c565b916044356001600160401b0381116109a157611da3903690600401613a0e565b6064356001600160401b038111610d4e57611dc2903690600401613a0e565b90825b855181101561259b57611dd88186613ec5565b516001600160a01b03611deb8389613ec5565b511690611df88385613ec5565b5191611e048487613ec5565b519160405192611e1384613963565b888452611e1e613d83565b611e2a61017c83615141565b818952603e6020526040892060030154611e4e906001600160a01b03163314614b28565b6040516331a9108f60e11b815260048101869052602081602481875afa908115612590578a91612556575b506001600160a01b0316330361251b57611e9385846150d8565b92838a5260d860205260408a205495611eab8761511b565b15612136575050848952603d602052600560408a20015560066040892001835160018060401b03811161212257611eec81611ee68454613c60565b84613cdb565b6020601f82116001146120a857918160019897969492600080516020615d0d83398151915296948d9161209d575b50600019600383901b1c191690891b1790555b848a52603d60205286908160408c200155600960408b20019060ff19825416179055838952603d602052600460408a200133878060a01b03198254161790555b838952603d602052604089209360405191611f8783613918565b85548352878601546020840152878060a01b0360028701541660408401526003860154606084015261202660ff60096004890154988b8060a01b038a16608088015260a0998c8060401b03908b1c168a880152600581015460c0880152611ff060068201613dd9565b60e088015261200160078201613dd9565b61010088015261201360088201613dd9565b6101208801520154166101408501614ae4565b8a5260d860205260408a2055612091815194602083015190888060a01b03604085015116936060810151958a8060a01b03608083015116928b8060401b03908301511660c08301519061012061010085015194015194604051998a998f8060401b034216988b614b86565b0390a281805501611dc5565b905085015138611f1a565b828b5260208b20908b5b601f198416811061210a575091600080516020615d0d8339815191529593916001999897959382601f198116106120f1575b5050881b88019055611f2d565b86015160001960f88460031b161c1916905538806120e4565b9091602060018192858b0151815501930191016120b2565b634e487b7160e01b8a52604160045260248afd5b91909550603591600183540180935582966040519461215486613918565b8486526020860152604085015260608401523360808401528960a084015260c08301528360e083015260405161218981613963565b89815261010083015260405161219e81613963565b89815261012083015260016101408301819052908952603d60209081526040808b20845181559184015192820192909255908201516002820180546001600160a01b0319166001600160a01b0392831617905560608301516003830155608083015160048301805460a0808701516001600160e01b031990921693909416929092179190921b600160a01b600160e01b031617905560c0820151600582015560e08201518051919291906001600160401b0382116109c2578190612272826122696006880154613c60565b60068801613cdb565b602090601f83116001146124ac578c926124a1575b50508160011b916000199060031b1c19161760068301555b6101008101518051906001600160401b0382116109c25781906122d2826122c96007880154613c60565b60078801613cdb565b602090601f8311600114612432578c92612427575b50508160011b916000199060031b1c19161760078301555b6101208101518051906001600160401b0382116109c257612330826123276008870154613c60565b60088701613cdb565b602090601f83116001146123b6576101409392918c91836123ab575b50508160011b916000199060031b1c19161760088401555b015190600682101561239757916123926001969594926009600080516020615d0d8339815191529501614af0565b611f6d565b634e487b7160e01b89526021600452602489fd5b01519050388061234c565b90600885018c5260208c20918c5b601f198516811061240f57509183916001936101409695601f198116106123f6575b505050811b016008840155612364565b015160001960f88460031b161c191690553880806123e6565b919260206001819286850151815501940192016123c4565b0151905038806122e7565b9250600785018c5260208c20908c935b601f1984168510612486576001945083601f1981161061246d575b505050811b0160078301556122ff565b015160001960f88460031b161c1916905538808061245d565b81810151835560209485019460019093019290910190612442565b015190503880612287565b9250600685018c5260208c20908c935b601f1984168510612500576001945083601f198116106124e7575b505050811b01600683015561229f565b015160001960f88460031b161c191690553880806124d7565b818101518355602094850194600190930192909101906124bc565b60405162461bcd60e51b81526020600482015260136024820152721bdb9b1e481bdddb995c8818d85b881b1a5cdd606a1b6044820152606490fd5b90506020813d602011612588575b816125716020938361397e565b81010312611aba5761258290613c2a565b38611e79565b3d9150612564565b6040513d8c823e3d90fd5b8380f35b503461015057610100366003190112610150576125ba613902565b60843591906001600160401b0383168303610d525760a435906001600160401b0382168203610d525760c4356001600160401b038111610d4a576126029036906004016139a1565b9060e4356001600160401b038111611337576126229036906004016139a1565b61262a613d83565b603a546001600160401b03600882901c811690881611610d33576001600160401b034281168682160391908211610f885760481c6001600160401b039081169116116113375761267e61017c604435615141565b6044358552603e60205260408520600301546001600160a01b03169233849003612cb1576001603454019485603455604051976331a9108f60e11b895260243560048a015260208960248160018060a01b0389165afa988915612ca6578899612c6a575b506001600160401b034281168282160111612c56576044358852603e6020526040808920600301549051906001600160a01b031661271f82613947565b88825260018060a01b03871660208301526024356040830152606082015260018060a01b038a16608082015260643560a082015260443560c082015260018060401b03421660e082015260018060401b0360018060401b03831660018060401b034216011661010082015260018060401b038316610120820152836101408201528461016082015288610180820152878952603c6020526040892090805182556001820160018060a01b036020830151169060018060a01b03199182825416179055604082015160028401556003830160018060a01b0360608401511682825416179055600483019060018060a01b036080840151169082541617905560a0810151600583015560c081015160068301556007820160018060401b0360e083015116815490600160401b600160801b0361010085015160401b1690600160801b600160c01b0361012086015160801b169260018060c01b031916171717905561014081015180519060018060401b038211611adb5781906128b0826128a76008880154613c60565b60088801613cdb565b602090601f8311600114612be7578d92612bdc575b50508160011b916000199060031b1c19161760088301555b61016081015180519091906001600160401b038111611adb57612910816129076009870154613c60565b60098701613cdb565b6020928c601f8311600114612b685761018094909183612b5d575b50508160011b916000199060031b1c19161760098401555b0151906004821015612b4957600a019060ff8019835416911617905561296b602435866150d8565b98898952603b602052604089205415600014612ade57604051996001600160401b0360208c01908111908c1117612ac85760208b01604052888b528952603b60205260408920998a5460018c5580600110612aa9575b50998952602089209989905b60018210612a95575050600080516020615cad833981519152979899509161046a94939161045b935b604080516101a0808252600c908201526b13d999995c90dc99585d195960a21b6101c08201526001600160a01b03998a166020820152602435918101919091526060810199909952909616608088015260643560a088015260443560c08801526001600160401b0342811660e0890181905296811690960186166101008801529094166101208601526101e06101408601819052859490850190613d43565b80518c8301556001909101906020016129cd565b612ac2908c600052600160206000209182019101613c9a565b386129c1565b634e487b7160e01b600052604160045260246000fd5b9091929394959697985060408920805490600160401b8210156109c25760018201808255821015612b35579261046a95928a600080516020615cad8339815191529a9998969360208e61045b9881522001556129f6565b634e487b7160e01b8b52603260045260248bfd5b634e487b7160e01b8a52602160045260248afd5b01519050388061292b565b50909192600985018d5260208d20918d5b601f1985168110612bc457509183916001936101809695601f19811610612bab575b505050811b016009840155612943565b015160001960f88460031b161c19169055388080612b9b565b91926020600181928685015181550194019201612b79565b0151905038806128c5565b9250600885018d5260208d20908d935b601f1984168510612c3b576001945083601f19811610612c22575b505050811b0160088301556128dd565b015160001960f88460031b161c19169055388080612c12565b81810151835560209485019460019093019290910190612bf7565b634e487b7160e01b88526011600452602488fd5b9098506020813d602011612c9e575b81612c866020938361397e565b81010312610ba157612c9790613c2a565b97386126e2565b3d9150612c79565b6040513d8a823e3d90fd5b60405162461bcd60e51b815260206004820152602160248201527f4f6e6c792067616c6c657279206f776e65722063616e206d616b65206f6666656044820152603960f91b6064820152608490fd5b5034610150576040366003190112610150576024358015158103610d5257612d3290612d2a613d83565b600435613eef565b6001805580f35b50346101505780600319360112610150576074546040516001600160a01b039091168152602090f35b503461015057806003193601126101505780549060ff8260081c161591828093612f7b575b8015612f64575b15612f085760ff198116600117825582612ef7575b50612dd360ff825460081c16612db881613b8a565b612dc181613b8a565b60018055612dce81613b8a565b613b8a565b612ddc33613af0565b604051610b58808201906001600160401b03821183831017612ee3579082916151558339039082f08015612ed657603680546001600160a01b0319166001600160a01b03929092169182179055803b156109a15781809160046040518094819363204a7f0760e21b83525af1801561099657612ec7575b506005603755670de0b6b3a76400006038556039819055603a80546001600160881b03191663278d00006203c267604f1b0117905590612e905780f35b61ff001981541681557f7f26b83ff96e1f2b6a682f133852f6798a09c465da95921460cefb3847402498602060405160018152a180f35b612ed090613934565b38612e53565b50604051903d90823e3d90fd5b634e487b7160e01b84526041600452602484fd5b61ffff191661010117815538612da3565b60405162461bcd60e51b815260206004820152602e60248201527f496e697469616c697a61626c653a20636f6e747261637420697320616c72656160448201526d191e481a5b9a5d1a585b1a5e995960921b6064820152608490fd5b50303b158015612d8e5750600160ff821614612d8e565b50600160ff821610612d87565b503461015057806003193601126101505760a654336001600160a01b0390911603612fb957612fb633613af0565b80f35b60405162461bcd60e51b815260206004820152602960248201527f4f776e61626c6532537465703a2063616c6c6572206973206e6f7420746865206044820152683732bb9037bbb732b960b91b6064820152608490fd5b5034610150578060031936011261015057613029613b32565b60a680546001600160a01b031990811690915560748054918216905581906001600160a01b0316600080516020615ced8339815191528280a380f35b5034610150576060366003190112610150576044356001600160401b0381116109a157613099612d329136906004016139a1565b6130a1613d83565b602435600435614ca3565b5034610150576040366003190112610150576001600160401b03906004358281116109a1576130df903690600401613a0e565b916024359081116109a1576130f8903690600401613a0e565b90805b83518110156131455761313a6131118286613ec5565b5161311c8386613ec5565b516040519161312a83613963565b858352613135613d83565b614ca3565b6001808055016130fb565b5080f35b50346101505760a0366003190112610150576131636138ec565b906084356001600160401b0381116109a1576131839036906004016139a1565b61318b613d83565b61319961017c600435615141565b6004358252603e6020526131bd60018060a01b036003604085200154163314614b28565b6040516331a9108f60e11b815260443560048201526020816024816001600160a01b0388165afa9081156138be578391613884575b506001600160a01b0316330361251b5761320e604435846150d8565b80835260d86020526040832054936132258561511b565b156134995750838352603d602052604083206064356005820155825194906006016001600160401b03861161348557613268866132628354613c60565b83613cdb565b602095601f811160011461341157808697600080516020615d0d833981519152969791613406575b508160011b916000199060031b1c19161790555b808552603d602052604085206004803560018381019190915560098301805460ff191690911790550180546001600160a01b031916331790555b808552603d60205261096a6040862092604051936132fb85613918565b805485526001810154602086015260028101546001600160a01b039081166040870152600382015460608701526004820154908116608087015260a090811c6001600160401b0316908601908152600582015460c087019081529490919061336560068301613dd9565b60e088015261337660078301613dd9565b9361010088019485526133a860ff600961339260088701613dd9565b956101208c019687520154166101408a01614ae4565b8a5260d860205260408a205585519760208701519360018060a01b0360408901511696606089015198608060018060a01b03910151169460018060401b0390511690519151935194604051998a9960018060401b034216988b614b86565b905086015138613290565b81865260208620865b601f198316811061346d575090600191600080516020615d0d83398151915296979882601f19811610613454575b5050811b0190556132a4565b88015160001960f88460031b161c191690553880613448565b8689015182556020988901986001909201910161341a565b634e487b7160e01b85526041600452602485fd5b9091929350600160355401908160355581604051916134b783613918565b818352600435602084015260018060a01b0316604083015260443560608301523360808301528560a083015260643560c08301528460e08301526040516134fd81613963565b86815261010083015260405161351281613963565b86815261012083015260016101408301819052908652603d60209081526040808820845181559184015192820192909255908201516002820180546001600160a01b0319166001600160a01b0392831617905560608301516003830155608083015160048301805460a0808701516001600160e01b031990921693909416929092179190921b600160a01b600160e01b031617905560c0820151600582015560e08201518051919291906001600160401b03821161377c5781906135dd826122696006880154613c60565b602090601f831160011461381557899261380a575b50508160011b916000199060031b1c19161760068301555b6101008101518051906001600160401b03821161377c578190613634826122c96007880154613c60565b602090601f831160011461379b578992613790575b50508160011b916000199060031b1c19161760078301555b6101208101518051906001600160401b03821161377c57613689826123276008870154613c60565b602090601f831160011461370b57610140939291899183613700575b50508160011b916000199060031b1c19161760088401555b01519060068210156136ec57600080516020615d0d83398151915293929160096136e79201614af0565b6132de565b634e487b7160e01b86526021600452602486fd5b0151905038806136a5565b906008850189526020892091895b601f198516811061376457509183916001936101409695601f1981161061374b575b505050811b0160088401556136bd565b015160001960f88460031b161c1916905538808061373b565b91926020600181928685015181550194019201613719565b634e487b7160e01b88526041600452602488fd5b015190503880613649565b9250600785018952602089209089935b601f19841685106137ef576001945083601f198116106137d6575b505050811b016007830155613661565b015160001960f88460031b161c191690553880806137c6565b818101518355602094850194600190930192909101906137ab565b0151905038806135f2565b9250600685018952602089209089935b601f1984168510613869576001945083601f19811610613850575b505050811b01600683015561360a565b015160001960f88460031b161c19169055388080613840565b81810151835560209485019460019093019290910190613825565b90506020813d6020116138b6575b8161389f6020938361397e565b81010312610d4e576138b090613c2a565b386131f2565b3d9150613892565b6040513d85823e3d90fd5b5034610150576020366003190112610150576138e3613b32565b60043560395580f35b602435906001600160a01b0382168203610d5257565b600435906001600160a01b0382168203610d5257565b61016081019081106001600160401b03821117612ac857604052565b6001600160401b038111612ac857604052565b6101a081019081106001600160401b03821117612ac857604052565b602081019081106001600160401b03821117612ac857604052565b601f909101601f19168101906001600160401b03821190821017612ac857604052565b81601f82011215610d52578035906001600160401b038211612ac857604051926139d5601f8401601f19166020018561397e565b82845260208383010111610d5257816000926020809301838601378301015290565b6001600160401b038111612ac85760051b60200190565b81601f82011215610d5257803591613a25836139f7565b92613a33604051948561397e565b808452602092838086019260051b820101928311610d52578301905b828210613a5d575050505090565b81358152908301908301613a4f565b81601f82011215610d5257803591613a83836139f7565b92613a91604051948561397e565b808452602092838086019260051b820101928311610d52578301905b828210613abb575050505090565b81356001600160a01b0381168103610d52578152908301908301613aad565b6040906003190112610d52576004359060243590565b60a680546001600160a01b0319908116909155607480549182166001600160a01b039384169081179091559116600080516020615ced833981519152600080a3565b6074546001600160a01b03163303613b4657565b606460405162461bcd60e51b815260206004820152602060248201527f4f776e61626c653a2063616c6c6572206973206e6f7420746865206f776e65726044820152fd5b15613b9157565b60405162461bcd60e51b815260206004820152602b60248201527f496e697469616c697a61626c653a20636f6e7472616374206973206e6f74206960448201526a6e697469616c697a696e6760a81b6064820152608490fd5b15613bf157565b60405162461bcd60e51b815260206004820152601160248201527011d85b1b195c9e481b9bdd08199bdd5b99607a1b6044820152606490fd5b51906001600160a01b0382168203610d5257565b6004821015613c4a5752565b634e487b7160e01b600052602160045260246000fd5b90600182811c92168015613c90575b6020831014613c7a57565b634e487b7160e01b600052602260045260246000fd5b91607f1691613c6f565b818110613ca5575050565b60008155600101613c9a565b90601f8111613cbe575050565b613cd991600052601f6020600020910160051c810190613c9a565b565b9190601f8111613cea57505050565b613cd9926000526020600020906020601f840160051c83019310613d16575b601f0160051c0190613c9a565b9091508190613d09565b91818110613d2d57505050565b613cd99260005260206000209182019101613c9a565b919082519283825260005b848110613d6f575050826000602080949584010152601f8019910116010190565b602081830181015184830182015201613d4e565b600260015414613d94576002600155565b60405162461bcd60e51b815260206004820152601f60248201527f5265656e7472616e637947756172643a207265656e7472616e742063616c6c006044820152606490fd5b9060405191826000825492613ded84613c60565b908184526001948581169081600014613e5a5750600114613e17575b5050613cd99250038361397e565b9093915060005260209081600020936000915b818310613e42575050613cd993508201013880613e09565b85548884018501529485019487945091830191613e2a565b915050613cd994506020925060ff191682840152151560051b8201013880613e09565b15613e8457565b60405162461bcd60e51b815260206004820152601960248201527824ba103bb0b9b713ba1030903832b73234b7339037b33332b960391b6044820152606490fd5b8051821015613ed95760209160051b010190565b634e487b7160e01b600052603260045260246000fd5b919091613efb8161512e565b1561495857600092818452603c6020526040842090613fd760ff600a60405194613f2486613947565b8054865260018101546001600160a01b03908116602088015260028201546040808901919091526003830154821660608901526004830154909116608080890191909152600583015460a0890152600683015460c089015260078301546001600160401b0380821660e08b01529281901c83166101008a0152901c16610120870152613fb260088201613dd9565b610140870152613fc460098201613dd9565b6101608701520154166101808401613c3e565b613fe761017c60c0840151615141565b60808201516001600160a01b031633036149055760018060a01b03602083015116602060408401516024604051809481936331a9108f60e11b835260048301525afa908115610d3f5786916148cb575b506001600160a01b0316330361488c5761018082015160048110156136ec576140609015613e7d565b6101008201516001600160401b031642101561484f571561484357818452603c602052600a6040852001600160ff19825416179055604084206140ad60ff600a604051936102c985613947565b6020810151604082015186916001600160a01b031690813b15610d4e5782916140ed9160405194858094819363095ea7b360e01b83523060048401614ac9565b03925af18015610d3f57614830575b50600080516020615cad83398151915281519160206141ee60018060a01b0382840151169261045b60408201519160018060a01b0360608201511660018060a01b0360808301511660a083015160c084015160018060401b0360e0860151169160018060401b03610100870151169360018060401b036101208801511695610160610140890151980151996040519d8e9d8e600d6101a08083528201526c13d999995c9058d8d95c1d1959609a1b6101c0820152015260408d015260608c015260808b015260a08a015260c089015260e08801526101008701526101208601526101e080610140870152850190613d43565b426001600160401b03166101808301520390a260016035540180603555828552603c602052604085209061422c60ff600a60405194613f2486613947565b60c08201519160018060a01b0360208201511690604081015160018060a01b0360808301511660018060401b03610120840151169060a08401519261016061014086015195015195604051986142818a613918565b888a5260208a015260408901526060880152608087015260a086015260c08501526040516142ae81613963565b88815260e0850190815261010085019190915261012084019190915260016101408401819052918752603d60209081526040808920855181559185015193820193909355918301516002830180546001600160a01b0319166001600160a01b0392831617905560608401516003840155608084015160048401805460a0808801516001600160e01b031990921693909416929092179190921b600160a01b600160e01b031617905560c08301516005830155518051906001600160401b03821161377c57819061438e826143856006870154613c60565b60068701613cdb565b602090601f83116001146147c15789926147b6575b50508160011b916000199060031b1c19161760068201555b6101008201518051906001600160401b03821161377c5781906143ee826143e56007870154613c60565b60078701613cdb565b602090601f831160011461474757899261473c575b50508160011b916000199060031b1c19161760078201555b6101208201518051906001600160401b03821161377c578190614445826123276008870154613c60565b602090601f83116001146146cd5789926146c2575b50508160011b916000199060031b1c19161760088201555b6101408201519060068210156146ae5761457193929160096144949201614af0565b600080516020615d0d833981519152815191604061454489611178602085015194602060018060a01b038683015116968160608401519560018060a01b036080860151166001808b1b0360a08701511660c087015191610120610100890151980151998c519d8e9d8e610160815261450f6101608201614b08565b9989820152015260608d015260808c015260a08b015260c08a0152888303908160e08b01528352016101008801520190613d43565b426001600160401b03166101408301520390a26020810151604090910151906001600160a01b03166150d8565b91828452603b60205260408420906040518083602082955493848152019088526020882092885b8181106146955750506145ad9250038361397e565b845b8251811015614661576145c28184613ec5565b518481141580614652575b8061461b575b6001929190806145f9575b6145ea575b50016145af565b6145f39061498f565b386145e3565b50808852603c602052828060401b03600760408a20015460401c1642106145de565b50808752603c60205260ff600a60408920015416600481101561463e57156145d3565b634e487b7160e01b88526021600452602488fd5b5061465c8161512e565b6145cd565b50939150506040918152603b6020522080546000825580614680575050565b613cd991600052602060002090810190613c9a565b8454835260019485019487945060209093019201614598565b634e487b7160e01b87526021600452602487fd5b01519050388061445a565b9250600884018952602089209089935b601f1984168510614721576001945083601f19811610614708575b505050811b016008820155614472565b015160001960f88460031b161c191690553880806146f8565b818101518355602094850194600190930192909101906146dd565b015190503880614403565b9250600784018952602089209089935b601f198416851061479b576001945083601f19811610614782575b505050811b01600782015561441b565b015160001960f88460031b161c19169055388080614772565b81810151835560209485019460019093019290910190614757565b0151905038806143a3565b9250600684018952602089209089935b601f1984168510614815576001945083601f198116106147fc575b505050811b0160068201556143bb565b015160001960f88460031b161c191690553880806147ec565b818101518355602094850194600190930192909101906147d1565b61483c90959195613934565b93386140fc565b50613cd991925061498f565b60405162461bcd60e51b8152602060048201526015602482015274151a19481bd999995c881dd85cc8195e1c1a5c9959605a1b6044820152606490fd5b60405162461bcd60e51b8152602060048201526017602482015276151bdad95b881bdddb995c881dd85cc818da185b99d959604a1b6044820152606490fd5b90506020813d6020116148fd575b816148e66020938361397e565b81010312610d33576148f790613c2a565b38614037565b3d91506148d9565b60405162461bcd60e51b815260206004820152602560248201527f4f6e6c7920746f6b656e206f776e65722063616e20616363657074207468652060448201526437b33332b960d91b6064820152608490fd5b60405162461bcd60e51b815260206004820152600f60248201526e13d999995c881b9bdd08199bdd5b99608a1b6044820152606490fd5b600052603c602052600a604060002001600260ff1982541617905560406000206149c360ff600a604051936102c985613947565b600080516020615cad8339815191528151916020614ab460018060a01b0382840151169261045b60408201519160018060a01b0360608201511660018060a01b0360808301511660a083015160c084015160018060401b0360e0860151169160018060401b03610100870151169360018060401b036101208801511695610160610140890151980151996040519d8e9d8e600d6101a08083528201526c13d999995c94995a9958dd1959609a1b6101c0820152015260408d015260608c015260808b015260a08a015260c089015260e08801526101008701526101208601526101e080610140870152850190613d43565b426001600160401b03166101808301520390a2565b6001600160a01b039091168152602081019190915260400190565b6006821015613c4a5752565b906006811015613c4a5760ff80198354169116179055565b600d81526c115e1a1a589a5d131a5cdd1959609a1b602082015260400190565b15614b2f57565b60405162461bcd60e51b815260206004820152602960248201527f4f6e6c792067616c6c657279206f776e65722063616e206d616e6167652074686044820152681948195e1a1a589a5d60ba1b6064820152608490fd5b989496614c1096614bf293614c01966101409b969d9e9d60608e614bb06101608083528201614b08565b60208201989098526001600160a01b03948516604082015201521660808c01526001600160401b0398891660a08c015260c08b015289820360e08b0152613d43565b90878203610100890152613d43565b90858203610120870152613d43565b9416910152565b15614c1e57565b60405162461bcd60e51b8152602060048201526011602482015270115e1a1a589a5d081b9bdd08199bdd5b99607a1b6044820152606490fd5b614c618154613c60565b9081614c6b575050565b81601f60009311600114614c7d575055565b81835260208320614c9991601f0160051c810190600101613c9a565b8160208120915555565b90929192614cb361017c83615141565b600093828552602092603e8452614cda60018060a01b036003604089200154163314614b28565b614ce6610dac8461511b565b828652603d8452604086205415159081615033575b5080615018575b15614fc457818552603d8352604085209260405192614d2084613918565b84548452600185015482850190815260028601546001600160a01b039081166040870152600387015460608701526004870154908116608087015260a090811c6001600160401b031690860152600586015460c086015294614dc49060ff90600990614d8e60068201613dd9565b60e0890152614d9f60078201613dd9565b610100890152614db160088201613dd9565b6101208901520154166101408601614ae4565b60a08401516001600160401b03164211614f39578652603d81526040862060098101805460ff1916600117905582516006909101916001600160401b03821161377c57614e1b82614e158554613c60565b85613cdb565b80601f8311600114614ec357508190600080516020615d0d83398151915296979891614eb8575b508160011b916000199060031b1c19161790555b815193516040808401516060850151608086015160a087015160c0880151610100890151610120909901519551988998614eb3986001600160401b03428116999893979296949516936001600160a01b039081169316908b614b86565b0390a2565b905083015138614e42565b8389528089209298905b601f198a168210614f2157505096600191600080516020615d0d83398151915296979882601f19811610614f08575b5050811b019055614e56565b85015160001960f88460031b161c191690553880614efc565b80600184958294958901518155019401920190614ecd565b91509150603d9250808594955282825260096040852001600260ff19825416179055600060066040862001614f716110a68254613c60565b55835252600960408220828155826001820155826002820155826003820155826004820155826005820155614fa860068201614c57565b614fb460078201614c57565b614fc060088201614c57565b0155565b60405162461bcd60e51b815260048101849052602660248201527f45786869626974207761736e277420726573657276656420696e207468652067604482015265616c6c65727960d01b6064820152608490fd5b5060ff60096040872001541660068110156136ec5715614d02565b905060016040872001541438614cfb565b9190820180921161505157565b634e487b7160e01b600052601160045260246000fd5b90815180825260208080930193019160005b828110615087575050505090565b83516001600160a01b031685529381019392810192600101615079565b90815180825260208080930193019160005b8281106150c4575050505090565b8351855293810193928101926001016150b6565b604051606091821b6001600160601b031916602082019081526034808301949094529281529081016001600160401b03811182821017612ac85760405251902090565b600052603d602052604060002054151590565b600052603c602052604060002054151590565b600052603e60205260406000205415159056fe6080806040523461001657610b3c908161001c8239f35b600080fdfe60406080815260048036101561001457600080fd5b600091823560e01c9081631f63503a1461068d57816337bcb2eb1461055d5781635e7375481461046c5781636e553f65146103cb578163715018a61461037357816379ba5097146102eb5781638129fc1c146101a25781638da5cb5b14610179578163b961cbe114610136578163e30c39781461010d575063f2fde38b1461009b57600080fd5b3461010957602036600319011261010957356001600160a01b0381811691829003610105576100c8610969565b609780546001600160a01b03191683179055606554167f38d16b8cac22d99fc7c124b9cd0de2d3fa1faef420bfe791d8c362d765e227008380a380f35b8280fd5b5080fd5b83903461010957816003193601126101095760975490516001600160a01b039091168152602090f35b91905034610105578160031936011261010557602092829161015661090c565b9035825260ca85528282206001600160a01b039091168252845220549051908152f35b83903461010957816003193601126101095760655490516001600160a01b039091168152602090f35b91905034610105578260031936011261010557825460ff8160081c1615918280936102de575b80156102c7575b1561026d575060ff19811660011784558161025c575b5061021560ff845460081c166101fa816109c1565b610203816109c1565b60018055610210816109c1565b6109c1565b61021e33610927565b610226575080f35b60207f7f26b83ff96e1f2b6a682f133852f6798a09c465da95921460cefb38474024989161ff001984541684555160018152a180f35b61ffff1916610101178355386101e5565b608490602085519162461bcd60e51b8352820152602e60248201527f496e697469616c697a61626c653a20636f6e747261637420697320616c72656160448201526d191e481a5b9a5d1a585b1a5e995960921b6064820152fd5b50303b1580156101cf5750600160ff8316146101cf565b50600160ff8316106101c8565b905034610105578260031936011261010557609754336001600160a01b039091160361031e578261031b33610927565b80f35b906020608492519162461bcd60e51b8352820152602960248201527f4f776e61626c6532537465703a2063616c6c6572206973206e6f7420746865206044820152683732bb9037bbb732b960b91b6064820152fd5b83346103c857806003193601126103c85761038c610969565b609780546001600160a01b031990811690915560658054918216905581906001600160a01b0316600080516020610ae78339815191528280a380f35b80fd5b83915080600319360112610109578235906103e461090c565b6103ec610a70565b82845260ca60209081528285206001600160a01b038316808752915282852080543481019190821061045957600080516020610ac7833981519152959697505584865260ca60205282862090865260205261044f82862054925192839283610a55565b0390a26001805580f35b634e487b7160e01b875260118852602487fd5b919050346101055760603660031901126101055780359161048b61090c565b60443590610497610a70565b84865260ca6020528286203387526020528286205493821561052357828503948511610510575085808093819388835260ca602052868320338452602052878784205560018060a01b031682f1156105075751600080516020610ac783398151915291819061044f903383610a55565b513d84823e3d90fd5b634e487b7160e01b875260119052602486fd5b606490602085519162461bcd60e51b8352820152601460248201527343616e6e6f7420636c61696d20302076616c756560601b6044820152fd5b905082346103c857602092836003193601126101095735815260c98352818120908251610589816108a1565b8351835480825284845286842087830191855b81811061067057505050816105b29103826108d2565b8152600180930194845191828288549182815201908198865283862090865b81811061065d57505050836105e79103846108d2565b8282820152519185519580870190875283518091528260608801940190855b81811061064157505050858303868301525180835291810195925b82811061062e5785870386f35b8351875295810195928101928401610621565b82516001600160a01b0316865294840194918401918701610606565b82548452928501929188019188016105d1565b82546001600160a01b03168452928901926001928301920161059c565b919050346101055760603660031901126101055760248035926001600160401b039290919083851161089d573660238601121561089d5784810135916106d2836108f5565b956106df855197886108d2565b838752602093828589019160051b83010191368311610899578301905b82821061087a5750505060443593858511610876573660238601121561087657848301359461072a866108f5565b95610737835197886108d2565b808752838688019160051b830101913683116108725784879101915b8383106108625750505050610766610969565b805196610772886108a1565b87528387019485528235885260c984528720955191825186811161082357600160401b938482116108505785906107ae838b54818d558c610a21565b01888a52858a208a5b83811061083557505050506001809701945192835196871161082357861161081257505081906107ec85855481875586610a21565b0191855280852090855b848110610801578680f35b8351838201559281019285016107f6565b634e487b7160e01b88526041905286fd5b50634e487b7160e01b88526041905286fd5b82516001600160a01b031682820155918701916001016107b7565b634e487b7160e01b8a5260418352838afd5b8235815291810191879101610753565b8a80fd5b8780fd5b81356001600160a01b03811681036108725781529085019085016106fc565b8980fd5b8580fd5b604081019081106001600160401b038211176108bc57604052565b634e487b7160e01b600052604160045260246000fd5b601f909101601f19168101906001600160401b038211908210176108bc57604052565b6001600160401b0381116108bc5760051b60200190565b602435906001600160a01b038216820361092257565b600080fd5b609780546001600160a01b0319908116909155606580549182166001600160a01b039384169081179091559116600080516020610ae7833981519152600080a3565b6065546001600160a01b0316330361097d57565b606460405162461bcd60e51b815260206004820152602060248201527f4f776e61626c653a2063616c6c6572206973206e6f7420746865206f776e65726044820152fd5b156109c857565b60405162461bcd60e51b815260206004820152602b60248201527f496e697469616c697a61626c653a20636f6e7472616374206973206e6f74206960448201526a6e697469616c697a696e6760a81b6064820152608490fd5b9091828110610a2f57505050565b60009182526020822092830192015b828110610a4a57505050565b818155600101610a3e565b6001600160a01b039091168152602081019190915260400190565b600260015414610a81576002600155565b60405162461bcd60e51b815260206004820152601f60248201527f5265656e7472616e637947756172643a207265656e7472616e742063616c6c006044820152606490fdfeae8f8bf7a17e85228ceb45755da4f4caefd40f17bfad89e34e910a6f952c17008be0079c531659141344cd1fd0a4f28419497f9722a3daafe3b4186f6b6457e0a2646970667358221220ad1ace53266a484cd7879ad4083ae4f647e40eb005538259b313eae8954081fd64736f6c63430008110033bf076646518bfc89aa04223054c6ebb7b85b3ecce008024a5b0d21fee43f97c71c7babc4e894749cf4ce6a85c4751e3d0f558d1959c95f83233cec8aad742d738be0079c531659141344cd1fd0a4f28419497f9722a3daafe3b4186f6b6457e066db01a2d81855ab9f32c6e24f5b9dd677486ecaf7f601ba22798f41231d3cb5a264697066735822122053076f0b9c99a7074ae0ea7b2d2bdfd3ed660ede2301d7cb5858f99fd3bf44e864736f6c63430008110033",
  "linkReferences": {},
  "deployedLinkReferences": {}
}